:020000040002F8
:107000000000042025A003004DA003004FA00300B2
:1070100051A0030053A0030055A00300000000008E
:1070200000000000000000000000000057A0030066
:1070300059A00300000000005BA003005DA0030056
:107040005FA00300D9860300C59E0300899E03004C
:107050009D9E03005FA003000D8203005FA003005C
:10706000A1950300A9950300B19503005FA003005B
:107070005FA003005FA003005FA003005FA0030008
:107080005FA003005FA003005FA003005FA00300F8
:107090005FA003005FA003005FA003005FA00300E8
:1070A0005FA003005FA00300B9950300C195030032
:1070B0005FA003005FA003000000000000000000CC
:1070C0005FA003005FA003005FA00300B19E030068
:1070D0005FA003005FA003005FA003005FA00300A8
:1070E000ED9E03005FA003005FA00300000000000E
:1070F000000000005FA0030000000000D99E030014
:10710000000000000000000000000000000000007F
:10711000000000000000000000000000000000006F
:10712000000000000000000000000000000000005F
:10713000000000000000000000000000000000004F
:10714000000000000000000000000000000000003F
:10715000000000000000000000000000000000002F
:10716000000000000000000000000000000000001F
:10717000000000000000000000000000000000000F
:1071800000000000000000000000000000000000FF
:1071900000000000000000000000000000000000EF
:1071A00000000000000000000000000000000000DF
:1071B00000000000000000000000000000000000CF
:1071C00000000000000000000000000000000000BF
:1071D00000000000000000000000000000000000AF
:1071E000000000000000000000000000000000009F
:1071F000000000000000000000000000000000008F
:107200007CB0EE877CB0EE87FF00FF00FF00FF0040
:10721000FF00FF00FF00FF00FF00FF00FF00FF0076
:10722000FF00FF00FF00FF00FF00FF00FF00FF0066
:10723000FF00FF00FF00FF002DE9F04F0378202B37
:1072400083B00446894603D114F8013F202BFBD0BC
:107250002B2B08BF013494F800E0BEF12D0F00F095
:1072600086809FED577BBEF1300F8DED007B00F0E7
:107270008A80BEF1000F00F09D80002600274FF0AD
:10728000000ADFF84CB14FF000081CE015F020FCBC
:1072900006460F46284615F0B5FB32463B4615F02C
:1072A00065FA524606460F465B46DDE90001B8F135
:1072B000000F03D015F036FDCDE9000114F801EF01
:1072C000BEF1000F14D0AEF13005092D52465B46D9
:1072D00030463946DAD9B8F1000F18D1BEF12E0F79
:1072E00015D114F801EF4FF00108BEF1000FEAD1FB
:1072F00032463B46DDE9000115F0EAFB06460F4643
:10730000C9F800403046394603B0BDE8F08F0EF0B2
:10731000DF0EBEF1450F08D02378202B03D114F8DF
:10732000013F202BFBD0002B41D1DDE9002330466B
:10733000394615F0CDFB237806460F46002BDFD0EB
:107340004946601C0A2215F0F5F921490246002041
:1073500015F01EFF02460B463046394615F0B8FBC5
:1073600006460F463046394603B0BDE8F08F94F824
:1073700001E09FED157BBEF1300F8DED007B04F138
:1073800001047FF476AF637843F02003782B7FF419
:1073900074AF10224946204615F0CCF915F032FBA7
:1073A000DDE9002315F094FB06460F46AAE7002608
:1073B000084FA7E7002600279AE700BFAFF3008039
:1073C000000000000000F03F000000000000F0BFDF
:1073D000000024400000F87F2DE9F84F16460023F6
:1073E000002204460D4615F0E5FD002840F09D8082
:1073F000002200232046294615F0D2FD28B1302274
:10740000002332707370BDE8F88F2046294613F0D0
:1074100061FE15F00DFE7BA3D3E9002381462946CA
:10742000204615F0C7FD002800F08680B9F1000F56
:10743000C0F2BE804A4600206F4915F0A9FE024600
:107440000B462046294615F06DFC04460D4666A104
:10745000D1E9000101274FF0000822462B4615F024
:1074600037FB0022654B15F081F915F0CDFE002F9A
:10747000CC464FF0FF3AC1464FF0000840F38580FC
:10748000DFF888E15E4C0122AEF1700945F6F32584
:107490004FF02E0BA94208BFA0424FF0300309D392
:1074A000001B61EB0501A94208BFA04203F10103E3
:1074B000F6D2DBB2337050EA010306F1010409D1C0
:1074C000BA4210DACE4502F101020CD026467EE81F
:1074D0000245DFE7BA4204BF86F801B0B41CCE45CE
:1074E00002F10102F2D1B8F1000F0DD02246302195
:1074F00002F8011BC2F1010353442344002BF7DCC3
:107500002AEAEA7301331C44BCF1010F4CD0652315
:10751000BCF1000F2370C5BF2B236370611CA11C3D
:107520006046BDE8F84F0AF053BE05F100431D4622
:107530002D23337001365BE72DA3D3E900232046CA
:10754000294615F055FD00287FF470AFB9F10E0FF4
:1075500009F101073DDDA9F10E0842460020264948
:1075600015F016FE02460B462046294615F0DAFBBA
:107570000022224B15F0FAF815F046FE002FA9F173
:107580000F0A4FF0010C3FF77BAF334630222E2419
:1075900003F8022B74707FEA090618D01E4403F822
:1075A000012BB342FBD16BE700232370BDE8F88FBA
:1075B000C9F100020020104915F0EAFD02460B4611
:1075C0002046294615F084FA04460D463FE71E463C
:1075D00056E7C9F10E0200200749C84615F0D8FD4C
:1075E0004FF0010939E700BF0000901EC4BCD6422D
:1075F00050EFE2D6E41A4B44000024400000E03F84
:1076000000407A108DEDB5A0F7C6B03ED0DC030087
:1076100070B54FF0FF3006F0CDF904466FF07F40B3
:1076200006F0C8F90646204615F0DCF900220C4B9E
:1076300015F04EFA044630460D4615F0D3F906A370
:10764000D3E9002315F06EFB02460B46204629467F
:1076500015F08CF870BD00BF0000E0DFFFFF6F4346
:107660000000F03D0000000008B50CF0ADF8DFEDC3
:107670000C7A07EE100A67EE277A17EE900A15F0DB
:10768000D3F905A3D3E9002315F04CFB15F0D0FC8A
:1076900008BD00BFAFF30080EA2E4454FB2119401F
:1076A0000000B4430000000008B50CF0A1F8DFEDC5
:1076B0000C7A07EE100A67EE277A17EE900A15F09B
:1076C000B3F905A3D3E9002315F02CFB15F0B0FCAA
:1076D00008BD00BFAFF30080EA2E4454FB211940DF
:1076E0000000B44300000000494A21F000439342E7
:1076F0002DE9704304460D464BDC464A93420E4644
:107700000EDC3FA3D3E9002315F030F80022424BF2
:1077100015F06EFC00284CD020462946BDE8708349
:107720003E4A93423BDCB3F1804F42DD13F0CCF88C
:107730002246804689462B462046294615F0C8F940
:107740000022354B15F012F813F082FF02460B466B
:107750004046494615F00AF802460B4600202E49DD
:1077600015F0E0FA424604460D464B46404649466F
:1077700014F0FCFF02460B462046294614F0F6FFA3
:1077800002F06AF8002EC9DC01F100431946BDE899
:10779000708302460B4614F0E9FFBDE8708313F0D6
:1077A00093F802F059F818A3D3E9002314F0DEFF90
:1077B000E8E722462B462046294615F089F98046FF
:1077C00089462046294613F07FF8002204460D46DC
:1077D000114B4046494614F0C9FF13F039FF00220F
:1077E0000D4B14F0C3FF02460B464046494615F0C8
:1077F00099FA22462B4614F0B9FF00F0C5FAC1E70A
:107800009C7500883CE4377EEF39FAFE422EE63F55
:10781000FFFFEF7FFFFF2F3E0000F03F0000B04171
:107820002DE9F84FC44B21F000469E4204460D4618
:107830008A460EDDC14B9E4200F3AC8000F0A7806B
:10784000BAF1000F40F3EA809FA1D1E90001BDE841
:10785000F88FBB4B9E4200F3B580A3F1DE739E42CE
:1078600040F3A0804FF0FF3B22462B46204629469E
:1078700015F02EF902460B468046894615F028F988
:1078800093A3D3E9002306460F4615F021F992A3EE
:10789000D3E9002314F06AFF32463B4615F018F98D
:1078A0008FA3D3E9002314F061FF32463B4615F065
:1078B0000FF98DA3D3E9002314F058FF32463B465D
:1078C00015F006F98AA3D3E9002314F04FFF3246DE
:1078D0003B4615F0FDF888A3D3E9002314F046FFDA
:1078E00042464B4615F0F4F885A3D3E900238046C1
:1078F00089463046394615F0EBF883A3D3E90023D7
:1079000014F032FF32463B4615F0E2F880A3D3E98B
:10791000002314F029FF32463B4615F0D9F87EA328
:10792000D3E9002314F020FF32463B4615F0D0F88F
:107930007BA3D3E9002314F017FF32463B4615F032
:10794000C7F8BBF1FF3F02460B466CD040464946A4
:1079500014F00CFF22462B4615F0BAF8794E7A4BFC
:107960004FEACB0B5E449B44DBE9002314F0FCFEA2
:1079700022462B4614F0F8FE02460B46D6E90001DB
:1079800014F0F2FEBAF1000F43DBBDE8F88F0028D7
:107990003FF456AF22462B462046294614F0E6FE19
:1079A000BDE8F88F60A3D3E9002314F0DFFE0022C6
:1079B000664B15F01DFB00283FF454AF20462946C6
:1079C000BDE8F88F12F080FF614B9E4204460D46E1
:1079D00039DCA3F550239E425EDC02460B4614F0D0
:1079E000C5FE0022594B14F0BFFE002206460F468A
:1079F0004FF080432046294614F0B8FE02460B465D
:107A00003046394615F08EF94FF0000B04460D460E
:107A10002AE701F100431946BDE8F88F44A1D1E9F6
:107A20000001BDE8F88F4046494614F09FFE22460B
:107A30002B4615F04DF802460B462046294614F019
:107A400093FEBDE8F88F434B9E421ADC0022424B66
:107A500014F08AFE002206460F463F4B2046294678
:107A600015F036F80022394B14F080FE02460B4622
:107A70003046394615F056F94FF0020B04460D46D4
:107A8000F2E602460B460020344915F04BF94FF060
:107A9000030B04460D46E7E600222C4B14F064FE6F
:107AA000002206460F46294B2046294614F05EFE6A
:107AB00002460B463046394615F034F94FF0010BBB
:107AC00004460D46D0E600BF182D4454FB21F93F73
:107AD00011DA22E33AAD903FEB0D76244B7BA93FC0
:107AE000513DD0A0660DB13F6E204CC5CD45B73F8E
:107AF000FF8300922449C23F0D5555555555D53F3A
:107B00002F6C6A2C44B4A2BF9AFDDE522DDEAD3F2D
:107B10006D9A74AFF2B0B33F711623FEC671BC3FCD
:107B2000C4EB98999999C93F9C7500883CE4377ECD
:107B3000182D4454FB21F9BFFFFF0F440000F07FD4
:107B4000FFFFDB3FE0DC030000DD03000000F03F4F
:107B5000FFFFF23FFF7F03400000F83F0000F0BF4F
:107B60002DE9F843C1F30A59A9F2FF35132D024656
:107B70000B460C4606468846074622DC002D50DBA5
:107B8000DFF8F09049FA05F901EA090E5EEA060607
:107B90001CD036A3D3E9002314F0E8FD0022002313
:107BA00015F026FA48B1002C04DD4FF4801343FA97
:107BB00005F5A84428EA0904002721463846BDE80F
:107BC000F883332D06DDB5F5806F3DD0104619469C
:107BD000BDE8F883A9F213494FF0FF3E2EFA09F9E8
:107BE00010EA090FF2D021A3D3E9002314F0BEFD5F
:107BF0000022002315F0FCF90028DED0002C09DD5E
:107C0000142D2BD00127C5F1340507FA05F5AE195F
:107C100028BFB844444626EA090721463846BDE84D
:107C2000F88312A3D3E9002314F0A0FD002200235F
:107C300015F0DEF90028C0D0002C0BDB54EA060753
:107C400006D00027084CB8E714F090FDBDE8F88393
:107C50003C46B2E700274FF00044AEE704F10108CC
:107C6000D8E700BFAFF300800000F03F9C750088AC
:107C70003CE4377EFFFF0F002DE9F041C1F30A57C6
:107C8000A7F2FF35132D02460B460C4688460646E2
:107C90001CDC002D3FDB3A4F2F41864601EA070CE2
:107CA0005CEA0E0E17D034A3D3E9002314F05EFD76
:107CB0000022002315F09CF920B1002C3FDB28EABC
:107CC0000704002621463046BDE8F081332D06DD4D
:107CD000B5F5806F2FD010461946BDE8F081A7F2A8
:107CE00013474FF0FF3E2EFA07F73842F3D022A396
:107CF000D3E9002314F03AFD0022002315F078F9AF
:107D00000028DFD0002C20DB444626EA0706214667
:107D10003046BDE8F08118A3D3E9002314F026FD16
:107D20000022002315F064F90028CBD0002C17DBCB
:107D300000263446C6E714F019FDBDE8F0814FF483
:107D4000801343FA05F5A844B9E7142D10D0012398
:107D5000C5F1340503FA05F5AE1928BF9844D3E7F9
:107D600024F00042074B324318BF1C460026A9E707
:107D700004F10108C8E700BF9C7500883CE4377E29
:107D8000FFFF0F000000F0BF2DE9F04FD84B9942E4
:107D900087B0804689460E4613DCD64B21F000445E
:107DA0009C4218DD0022D44B15F0FAF8002879D057
:107DB000002200230020D14914F0B4FF07B0BDE831
:107DC000F08FCF4B99422FDD42464B4614F0CEFC4C
:107DD00007B0BDE8F08FCB4B9C4270DDCA4B1E4410
:107DE0009E427ED80022C94B4046494614F0BEFC54
:107DF0004FEA215AAAF2FF3ABAF1000F04460D46A3
:107E00000E4640F3DE8142464B4614F0ADFC02467E
:107E10000B460020BD4914F0A7FC22462B4614F067
:107E200081FFCDE902010BE0B94B9E42DADD9FED07
:107E30009A7B8DED027B4FEA265A4446AAF2FF3A1E
:107E4000B44BC6F313069E4246F07F5500F3E7801D
:107E500045F44015204629460022AC4B14F084FC22
:107E6000002204460D46AC4B14F032FE22462B464F
:107E700014F02EFEA046CDE90401A946CDE900018B
:107E8000002E3AD1002200232046294615F088F81A
:107E9000002800F0CE80BAF1000F40F0748100207D
:107EA000002195E742464B464046314614F05CFCC3
:107EB00002460B4614F036FF07B0BDE8F08F0022F3
:107EC000964B14F053FC0022002315F091F8002883
:107ED00000F0CC80924B9C4200F3C880404649465B
:107EE00076E700228C4B14F0F3FD42464B4614F02B
:107EF000EFFDCDE900014FF0000A00224FF0804372
:107F00004046494614F032FC02460B46404649467C
:107F100014F008FF02460B4606460F4614F0D8FD43
:107F20005FA3D3E9002304460D4614F0D1FD5EA300
:107F3000D3E9002314F01AFC22462B4614F0C8FDA6
:107F40005BA3D3E9002314F011FC22462B4614F066
:107F5000BFFD59A3D3E9002314F008FC22462B46A9
:107F600014F0B6FD56A3D3E9002314F0FFFB22461C
:107F70002B4614F0ADFD54A3D3E9002314F0F6FB17
:107F800022462B4614F0A4FD51A3D3E9002314F09C
:107F9000EDFB22462B4614F09BFD04460D46BAF13C
:107FA000000F00F0BF80504614F02CFD4AA3D3E927
:107FB000002382468B4614F08BFDDDE90023CDE9DA
:107FC00004012046294614F0D1FB32463B4614F00A
:107FD0007FFD43A3D3E9002304460D46504659468E
:107FE00014F076FDDDE9022314F0C0FB02460B46D7
:107FF0002046294614F0BAFB02460B46DDE9000193
:1080000014F0B2FB42464B4614F0AEFB02460B4660
:10801000DDE9040114F0A8FB07B0BDE8F08F45F4DA
:108020000015C6F5801620462946B6100AF1010A49
:1080300012E72DA3D3E900232046294614F048FD7A
:1080400002460B460020314914F08EFBDDE9042383
:1080500014F03EFD06460F46BAF1000F73D10246FA
:108060000B462046294614F07FFBB1E642464B46BC
:108070004046494614F02CFD0022274B14F028FD01
:1080800002460B464046494614F06EFB07B0BDE879
:10809000F08F00BFAFF30080000000000000000080
:1080A00044523EDF12F1C23F9FC678D0099AC33FC7
:1080B000DE03CB966446C73FAF788E1DC571CC3FBB
:1080C000599322942449D23F04FA97999999D93F18
:1080D000935555555555E53F0000E0FE422EE63FCD
:1080E000763C7935EF39EA3D555555555555E53FBF
:1080F0007982DA3FFFFFEF3F0000F0BF000050C37E
:10810000FFFFEF7FFFFF1F3E3C412D400000F03F8F
:10811000FFFF3F439DA006000000E03F00005043EA
:10812000FFFF8F3CDDE9004522462B4614F01EFB85
:1081300032463B4614F0CCFC02460B46204629460C
:1081400014F012FB9CE7504614F05CFC23A3D3E927
:10815000002382468B4614F0BBFC22A3D3E9002304
:10816000804689465046594614F0B2FCDDE90223A8
:1081700014F0FCFA02460B463046394614F0F4FA85
:1081800022462B46DCE7504614F03CFC15A3D3E90D
:10819000002306460F4614F09BFCDDE9022314F091
:1081A000E5FA0EA3D3E9002304460D4630463946CE
:1081B00014F08EFC02460B462046294614F0D6FAEF
:1081C00006E60022044B14F0CFFA02460B46404666
:1081D000494614F0C9FA20E60000F03F0000E0FE36
:1081E000422EE63F763C7935EF39EA3D000000004B
:1081F00008B512F0EFFE04A3D3E9002314F092FDBA
:1082000008BD00BFAFF30080EF39FAFE422EE63F13
:108210002DE9F043DFF8B4808BB004460D4601F041
:10822000F3F898F90030013306460F462BD022466A
:108230002B462046294614F0E5FE814618BB204611
:10824000294612F041FB1FA3D3E9002314F0D0FE0E
:10825000C8B1194A98F90030CDF820900321CDE932
:108260000445CDE902458DE806008BB9134B4FF06C
:108270006042CDE90623684614F078F870B1089B97
:108280009BB9DDE90667304639460BB0BDE8F0839F
:108290000B490020022BCDE90601ECD114F0F2F9D4
:1082A00022230360089B002BEBD014F0EBF9089B12
:1082B0000360E6E7AFF3008088F20300FFFFEF47BB
:1082C0000000F07F7DF8B98FCE3386400782002012
:1082D0002DE9F043DFF8E4808BB004460D4601F051
:1082E00043F998F90030013306460F4633D0204653
:1082F000294614F035F870B32CA3D3E900232046A7
:10830000294614F075FE814650BB2AA3D3E9002309
:108310002046294614F04EFEE8B198F90030204A74
:10832000CDF82090002600270421022BCDE904453A
:10833000CDE90245CDE906678DE8060029D06846FB
:1083400014F014F828B3089B1BB114F09BF9089B98
:108350000360DDE90667304639460BB0BDE8F083BF
:108360000F4A98F90030019203210022CDE904451B
:10837000CDE90245009108922BB90A4B4FF06042BB
:10838000CDE90623DBE708490020022BCDE90601F1
:10839000D5D114F077F922230360D4E7AFF300803E
:1083A00090F20300FFFFEF470000F07FEF39FAFE85
:1083B000422E864051302DD5104987C007820020BB
:1083C0002DE9F04FDFF80C938DB006460F461446AA
:1083D0001D4601F0C5FC99F90080B8F1FF3FCDE9D9
:1083E000000136D022462B462046294614F00AFECC
:1083F000834670BB32463B463046394614F002FE97
:108400008246002840F0A2803046394600220023F0
:1084100014F0C6FD10B3002200232046294614F0B4
:10842000BFFD834600286AD09FEDA17B0122A44BAB
:10843000CDF828A00292CDE90467CDE906458DED7F
:10844000087B0393B8F1000F45D09FED9B7B8DED2A
:10845000007BDDE900010DB0BDE8F08FDDE9000132
:1084600013F07EFF8046002800F08D804FF0000A58
:108470004FF0000BDDE9000152465B4614F090FD21
:108480000028E6D03046394613F06AFF0028E0D0D5
:108490002046294613F064FF0028DAD099F900300D
:1084A000874A039204210022022BCDE90467CDE91B
:1084B0000645CDE908AB02910A9203D002A813F059
:1084C00055FF68B914F0DEF82223036008E09FED41
:1084D000787B8DED087B02A813F048FF002830D090
:1084E0000A9B1BB114F0CEF80A9B03609DED087B3C
:1084F0008DED007BDDE900010DB0BDE8F08F204679
:10850000294613F02DFF0028A3D000220023204687
:10851000294614F04FFD00289BD099F90030684A95
:10852000CDF828B00121CDE90467CDE906450291D7
:108530000392002BCBD063490020022BCDE9080128
:10854000C9D114F09FF821230360C9E7002200235A
:108550002046294614F024FD00283FF47AAF5A4BF8
:108560005749CDF828B000220120B8F1020FCDE91B
:1085700004670290CDE90645CDE908230391AAD10D
:10858000CDE9002365E73046394613F0E9FE0028BF
:108590003FF46CAF2046294613F0E2FE00283FF47A
:1085A00065AFDDE900231046194614F02BFD0028C5
:1085B0005FD1032399F900800293414B0A90CDE9E2
:1085C0000467CDE906450393B8F1000F2BD1DFF81E
:1085D00008B14FF0604A0022002330463946CDE909
:1085E00008AB14F0E7FC00283FF468AF0022374BDB
:1085F0002046294614F06CFA04460D4613F0BEFEE0
:1086000002460B462046294614F0CAFC70BB304B8C
:1086100099F900804FF06042CDE90823B8F1020FCC
:108620007FF44CAF4EE7DFF8B4B04FF0000A002201
:10863000002330463946CDE908AB14F0BBFC0028D6
:10864000ECD00022214B2046294614F041FA044682
:108650000D4613F093FE02460B462046294614F0C1
:108660009FFC18B9174B0022CDE9082399F9008027
:10867000D4E799F90090124BCDF828800122CDE97A
:108680000467CDE9064502920393B9F1000F3FF468
:108690001EAF002200231046194614F043FBB9F127
:1086A000020FCDE908013FF44CAF14E7AFF30080AF
:1086B0000000000000000000000000000000F03F8B
:1086C000A8F203000000F0FF0000F03F0000E03FD0
:1086D000FFFFEFC707820020FFFFEF470000F07F9A
:1086E0002DE9F84FC44E21F00043B34204460D4635
:1086F0000DDD03F1404303F58013034340F0B980DF
:10870000002940F3408100200021BDE8F88FBB4ED6
:10871000B34240F3A6800029C0F2788102460B469E
:108720000020B74914F020F80022B64B14F0D0F91D
:1087300004460D4612F08CFF95A3D3E90023894629
:1087400080462946204614F0C3F993A3D3E90023B9
:1087500014F00CF822462B4614F0BAF990A3D3E992
:10876000002314F001F822462B4614F0B1F98EA331
:10877000D3E9002313F0FAFF22462B4614F0A8F9A0
:108780008BA3D3E9002313F0EFFF22462B4614F00E
:108790009FF989A3D3E9002313F0E8FF22462B4673
:1087A00014F096F986A3D3E9002382468B4620462F
:1087B000294614F08DF984A3D3E9002313F0D4FFE4
:1087C00022462B4614F084F981A3D3E9002313F049
:1087D000CDFF22462B4614F07BF97FA3D3E900237B
:1087E00013F0C2FF22462B4614F072F90022844B8C
:1087F00013F0BCFF02460B465046594614F092FA5D
:1088000042464B4614F064F9002682468B463246B7
:108810004B463046494614F05BF902460B4620466B
:10882000294613F0A1FF324604460D464B4640460A
:10883000494613F09BFF02460B462046294614F09A
:1088400071FA02460B465046594613F08FFF3246E6
:108850004B4613F08BFF02460B4613F087FFBDE833
:10886000F88F694A93420EDC5DA1D1E90001BDE8B1
:10887000F88F02460B4613F077FF02460B4614F0C2
:1088800051FABDE8F88F02460B4614F021F940A3D7
:10889000D3E9002306460F4614F01AF93EA3D3E9A4
:1088A000002313F063FF32463B4614F011F93CA35A
:1088B000D3E9002313F058FF32463B4614F008F981
:1088C00039A3D3E9002313F051FF32463B4614F09D
:1088D000FFF837A3D3E9002313F046FF32463B46A7
:1088E00014F0F6F834A3D3E9002313F03FFF324627
:1088F0003B4614F0EDF832A3D3E9002380468946C5
:108900003046394614F0E4F82FA3D3E9002313F0DE
:108910002BFF32463B4614F0DBF82DA3D3E90023AE
:1089200013F024FF32463B4614F0D2F82AA3D3E9D1
:10893000002313F019FF32463B4614F0C9F8002219
:108940002F4B13F013FF02460B464046494614F0E6
:10895000E9F922462B4614F0BBF802460B4622A149
:10896000D1E9000113F000FF02460B4620462946DC
:1089700013F0FAFE02460B4619A1D1E9000113F0EB
:10898000F3FEBDE8F88F1AA1D1E90001BDE8F88F28
:1089900009F7FD0DE13D023F88B20175E0EF493F67
:1089A0003B8F68B52882A43F5544880E55C1C93F06
:1089B0007D6FEB0312D6D43F555555555555C53FE0
:1089C00082922EB1C5B8B33F59018D1B6C06E63FAC
:1089D000C88A599CE52A00404B2D8A1C273A03403F
:1089E000182D4454FB21F93F075C143326A6913C13
:1089F000182D4454FB210940FFFFEF3FFFFFDF3FED
:108A00000000F03F0000E03F0000603C00225C4BB3
:108A100013F0ACFE00225B4B14F05AF840A3D3E9EC
:108A2000002304460D4614F053F83FA3D3E9002376
:108A300013F09CFE22462B4614F04AF83CA3D3E9DF
:108A4000002313F091FE22462B4614F041F83AA37E
:108A5000D3E9002313F08AFE22462B4614F038F89F
:108A600037A3D3E9002313F07FFE22462B4614F0F0
:108A70002FF835A3D3E9002313F078FE22462B46C6
:108A800014F026F8804689462046294612F0E0FD7B
:108A90002FA3D3E9002306460F462046294614F0AB
:108AA00017F82DA3D3E9002313F05EFE22462B46D0
:108AB00014F00EF82AA3D3E9002313F057FE224640
:108AC0002B4614F005F828A3D3E9002313F04CFE3D
:108AD00022462B4613F0FCFF0022294B13F046FEE2
:108AE00002460B464046494614F01CF932463B46C6
:108AF00013F0EEFF1EA3D3E9002313F035FE324638
:108B00003B4613F033FE02460B4613F02FFE02469F
:108B10000B4619A1D1E9000113F026FEBDE8F88F3C
:108B200009F7FD0DE13D023F88B20175E0EF493FD5
:108B30003B8F68B52882A43F5544880E55C1C93F74
:108B40007D6FEB0312D6D43F555555555555C53F4E
:108B500082922EB1C5B8B33F59018D1B6C06E63F1A
:108B6000C88A599CE52A00404B2D8A1C273A0340AD
:108B7000075C143326A6913C182D4454FB21094070
:108B80000000F03F0000E03F434A91422DE9F843E6
:108B900004460D4639DD414A914209DD02F1795220
:108BA000914240DD02460B4613F0E0FDBDE8F8833C
:108BB00001F1404202F58012024330D0B1F1804F02
:108BC0003ADC0022364B13F0CFFD02460B4604463A
:108BD0000D4613F0CBFD224606460F462B46204697
:108BE000294613F075FF02460B463046394613F00E
:108BF000BDFD12F02DFD0B4602462946204613F01E
:108C0000B5FDBDE8F843FFF7BFB802460B4613F0C9
:108C1000ABFD02460B4614F085F8BDE8F883002052
:108C20000021BDE8F88300F017FE19A3D3E9002363
:108C300013F09CFDBDE8F88302460B4613F048FF95
:108C40000022174B13F090FD12F002FD22468046E1
:108C500089462B462046294613F088FD42460646A3
:108C60000F464B462046294613F080FD02460B4630
:108C700000200B4914F056F80B46024639463046A0
:108C800013F072FDBDE8F84300F0E6BDAFF30080DD
:108C9000EF39FAFE422EE63FFFFFEF3FFFFFAF4105
:108CA0000000F03F000000002DE9F047BE4B21F02E
:108CB0000048984584B004460D4612DD08F140484E
:108CC00008F58018034658EA030321D002460B46F4
:108CD00013F04AFD02460B4614F024F804B0BDE838
:108CE000F087B24B98458A4629DCB8F1795F80F26B
:108CF000658191A3D3E9002313F038FD0022AC4B2A
:108D000014F076F9D8B12046294604B0BDE8F087C2
:108D10008BA3D3E9002313F0DBFE8BA3D3E900235D
:108D200006460F462046294613F0D2FE02460B4661
:108D30003046394613F01AFD04B0BDE8F0872046EE
:108D4000294611F0C1FD02460B460020984913F058
:108D50000BFD0022974B13F0BBFE7DA3D3E900234C
:108D600004460D4613F0B4FE7BA3D3E9002313F0B1
:108D7000FDFC22462B4613F0ABFE79A3D3E900237A
:108D800013F0F2FC22462B4613F0A2FE76A3D3E9A1
:108D9000002313F0EBFC22462B4613F099FE74A33C
:108DA000D3E9002313F0E0FC22462B4613F090FE9B
:108DB00071A3D3E9002313F0D9FC22462B4613F00C
:108DC00087FE6FA3D3E90023CDE9000120462946A1
:108DD00013F07EFE6CA3D3E9002313F0C5FC2246FA
:108DE0002B4613F075FE6AA3D3E9002313F0BEFCF3
:108DF00022462B4613F06CFE67A3D3E9002313F041
:108E0000B3FC22462B4613F063FE694B002213F09D
:108E1000ADFCCDE902012046294612F019FC664B53
:108E2000984506460F4666DCDDE90223DDE90001D0
:108E300013F078FF3246CDE900013B463046394613
:108E400013F094FC02460B46DDE9000113F040FEEE
:108E50004FF00008CDE9000142463B464046394606
:108E600013F036FE02460B462046294613F07CFCE2
:108E7000424604460D463B463046394613F076FCE2
:108E800002460B462046294613F04CFF02460B468D
:108E900013F06CFC02460B462BA1D1E9000113F044
:108EA00063FC02460B46DDE9000113F05DFC42461F
:108EB00004460D463B464046394613F057FC0246F1
:108EC0000B4637A1D1E9000113F04EFC02460B46D8
:108ED0002046294613F048FC02460B4630A1D1E952
:108EE000000113F041FCBAF1000F3FF7F7AE01F1BA
:108EF00000431946F2E6DDE90223DDE9000113F043
:108F000011FF32463B4613F0E3FD32463B4613F079
:108F10002DFC02460B4613F029FC0BA3D3E90023DA
:108F200013F022FC02460B4605A1D1E9000113F023
:108F30001BFCD8E7AFF300809C7500883CE4377ECB
:108F4000182D4454FB21F93F075C143326A6913CAD
:108F500009F7FD0DE13D023F88B20175E0EF493FA1
:108F60003B8F68B52882A43F5544880E55C1C93F40
:108F70007D6FEB0312D6D43F555555555555C53F1A
:108F800082922EB1C5B8B33F59018D1B6C06E63FE6
:108F9000C88A599CE52A00404B2D8A1C273A034079
:108FA000182D4454FB21E93FFFFFEF3FFFFFDF3F58
:108FB0000000F03F0000E03F3233EF3F02460B4637
:108FC00013F086FD37A3D3E9002306460F4613F0BE
:108FD0007FFD36A3D3E9002313F0C8FB32463B469E
:108FE00013F076FD33A3D3E9002313F0BDFB324623
:108FF0003B4613F06DFD31A3D3E9002313F0B6FB1C
:1090000032463B4613F064FD2EA3D3E9002313F050
:10901000ABFB32463B4613F05BFD2CA3D3E90023A8
:1090200013F0A4FB32463B4613F052FD29A3D3E9CB
:109030000023804689463046394613F049FD27A370
:10904000D3E9002313F090FB32463B4613F040FD7A
:1090500024A3D3E9002313F089FB32463B4613F0E7
:1090600037FD22A3D3E9002313F07EFB32463B46B3
:1090700013F02EFD00220A4B13F078FB02460B463C
:109080004046494613F04EFE22462B4613F020FD83
:1090900022462B4613F06AFB04B0BDE8F08700BF00
:1090A0000000F03F09F7FD0DE13D023F88B2017578
:1090B000E0EF493F3B8F68B52882A43F5544880EB6
:1090C00055C1C93F7D6FEB0312D6D43F5555555559
:1090D0005555C53F82922EB1C5B8B33F59018D1B7E
:1090E0006C06E63FC88A599CE52A00404B2D8A1C35
:1090F000273A0340000000002DE9F84F1D46534277
:10910000134325F0004ADFF8E0E14AEAD3737345E0
:10911000144606460F4647D8C0F1000848EA000842
:1091200021F0004343EAD878F0458B463CD805F15E
:10913000404808F5801858EA020850D04FEAA57850
:1091400008F0020848EAD17850EA030134D052EA24
:109150000A023CD0F24557D0734538D0A3EB0A033E
:109160001B153C2B42DC002D70DB22462B46304683
:10917000394613F0D7FD11F0A7FBFEF751FBB8F10C
:10918000010F5FD0B8F1020F4ED0B8F1000F62D0DE
:1091900043A3D3E9002313F0E7FA43A3D3E9002361
:1091A00013F0E2FABDE8F88F32463B4620462946E6
:1091B00013F0DCFABDE8F88FB8F1020F1AD0B8F15D
:1091C000030F10D13AA1D1E90001BDE8F88FBBF13E
:1091D000000F14DB38A1D1E90001BDE8F88FBDE82C
:1091E000F84FFEF71DBB3946BDE8F88F32A1D1E933
:1091F0000001C4E72CA1D1E90001BDE8F88F30A13E
:10920000D1E90001BDE8F88F534526D0B8F1020F2F
:10921000F0D0B8F1030FD5D0B8F1010F4FF0000036
:1092200029D00021BDE8F88F1DA3D3E9002313F056
:109230009BFA02460B461CA1D1E9000113F094FAF7
:10924000BDE8F88F01F10041BDE8F88F3C338CDABE
:109250000020002193E7BDE8F88FB8F1020F18D085
:10926000B8F1030F10D0B8F1010F08D016A1D1E961
:109270000001BDE8F88F4FF00041BDE8F88F14A160
:10928000D1E90001BDE8F88F13A1D1E90001BDE8E3
:10929000F88F13A1D1E90001BDE8F88FAFF300808A
:1092A000075C143326A6A13C182D4454FB21094029
:1092B000182D4454FB2109C0182D4454FB21F93FBB
:1092C000182D4454FB21F9BF182D4454FB21E93FCC
:1092D000182D4454FB21E9BFD221337F7CD902C031
:1092E000D221337F7CD902400000F07F00000000D3
:1092F00043422DE9F047034321F000463E4A46EA47
:10930000D373934204460D4613D896423DD03B4B4F
:109310009E428A4617DC36A3D3E9002313F026FACF
:109320000022002313F064FEA8B320462946BDE8BE
:10933000F08702460B4613F017FA02460B4613F06D
:10934000F1FCBDE8F0872E4B9E42354624DD3346C6
:109350000246314613F00AFA224606460F462B46CD
:109360000020254913F000FA02460B4630463946E4
:1093700013F0D8FCFEF708FD0022224B13F0A8FBE7
:10938000BAF1000F2FDBBDE8F0870022002313F0B5
:10939000C9FCBDE8F087354622462B4620462946C3
:1093A00013F0E4F922462B4606460F4613F090FBD5
:1093B0002246804689462B4600200F4913F0D4F9F7
:1093C00002460B464046494613F0ACFC32463B464B
:1093D00013F0CCF9FEF7D8FC00220A4B13F078FB0F
:1093E000BAF1000FCFDA01F100431946BDE8F0876A
:1093F0009C7500883CE4377E0000F03FFFFF2F3E65
:10940000FFFFDF3F0000E03F2DE9F8434E4B21F026
:1094100000449C4206460F461BDC4C4B9C4222DD1E
:109420004B4B9C4263DD4B4B9C427BDD4A4B9C4249
:1094300046DD01339C4240D041A3D3E900231046CE
:10944000194613F045FB06460F4630463946BDE83F
:10945000F88302460B4613F03BFB06460F463046A8
:109460003946BDE8F88311F02FFA02F0B1FC002272
:109470003A4B8046894613F079F9B4F1725F06469B
:109480000F46ECDB42464B464046494613F020FB74
:1094900032463B4604460D463046394613F066F9DF
:1094A00002460B462046294613F03CFC00222B4B7B
:1094B00013F05CF906460F46D1E7294B9842BBD81A
:1094C0003046394611F000FA0022264B13F000FB1B
:1094D00000F04AF8002204460D46224B13F0F8FA39
:1094E00022462B4613F0F4FA06460F46B7E711F072
:1094F000EBF900F039F800221A4B06460F4613F03C
:10950000E7FA32463B4604460D460020154913F063
:1095100009FC02460B462046294613F027F9064669
:109520000F469CE711F0D0F900F01EF800220D4B19
:1095300013F0CEFA06460F4691E700BFAFF3008066
:109540009C7500883CE4377EFFFFEF7F422ED63FBC
:10955000FFFF3540412E8640CD3386400000F03F6E
:109560007DF8B98F0000E03F2DE9F04FB04E21F0BB
:109570000042B24283B004460D464FEAD1770DD97E
:10958000AC4EB24225D9C1F31303034340F0EC8043
:109590000FB10020002103B0BDE8F08FA64B9A4226
:1095A00000F2CB80A54B9A4200F2DC808AA3D3E97B
:1095B000002313F0DBF80022A14B13F019FD002863
:1095C00000F006812046294600229D4B13F0CEF87C
:1095D000E1E783A3D3E9002313F00AFD002840F05C
:1095E000C88081A3D3E900232046294613F0E2FC7A
:1095F0000028CED1934E7EA3D3E9002306EBC70605
:109600002046294613F064FAD6E9002313F0AEF899
:1096100013F00EFD064613F0F5F977A3D3E9002306
:109620008046894613F054FA02460B4620462946E6
:1096300013F09AF872A3D3E90023CDE90001404664
:10964000494613F045FA82468B4652465B46DDE9B1
:10965000000113F089F804460D4622462B462046A9
:10966000294613F035FA68A3D3E9002380468946DA
:1096700013F02EFA66A3D3E9002313F075F84246DF
:109680004B4613F025FA64A3D3E9002313F06EF8D8
:1096900042464B4613F01CFA61A3D3E9002313F0B2
:1096A00063F842464B4613F013FA5FA3D3E9002355
:1096B00013F05CF842464B4613F00AFA02460B469A
:1096C0002046294613F050F880468946002E58D08F
:1096D0002046294642464B4613F0FAF942460446D4
:1096E0000D464B4600204FF0804113F03DF80246F6
:1096F0000B462046294613F015FB02460B46504602
:10970000594613F031F8DDE9002313F02DF80B462C
:1097100002464B49002013F027F86FF47F739E42F6
:1097200051DA06F57A7601EB065100224FF0B87354
:1097300013F0CEF903B0BDE8F08F434B9A423FF6E9
:1097400059AF424BFC002344D3E9002313F00CF83B
:109750003F4BC7F101062344CDE90001D3E900AB3B
:10976000F61B72E7002678E702460B4612F0FEFF72
:1097700011E719A3D3E900231046194613F0A8F9FD
:1097800009E702460B462046294613F0A1F90022BC
:1097900006460F464FF080434046494612F0E4FF2C
:1097A00002460B463046394613F0BCFA22462B4699
:1097B00012F0DAFF02460B460020214912F0D4FFD6
:1097C00003B0BDE8F08F01EB065103B0BDE8F08FA8
:1097D000064642E7AFF300809C7500883CE4377E84
:1097E000EF39FAFE422E864051302DD5104987C000
:1097F000FE822B654715F73F0000E0FE422EE63F54
:10980000763C7935EF39EA3DD0A4BE726937663EC1
:10981000F16BD2C541BDBB3E2CDE25AF6A56113F70
:1098200093BDBE166CC1663F3E5555555555C53F57
:10983000412E8640FFFFEF7F422ED63FFFFF2F3E97
:109840000000F03F20DD0300B1A2F03F30DD030057
:1098500040DD0300000000002DE9F04FB1F5801F4E
:1098600085B006460F460B465ADA024621F0004400
:10987000224300F0F8800029C0F27A810022D64B02
:1098800013F026F9D54A0B46934206460F466FF071
:10989000350C4ADCC3F3130505F5152E0EF6647E70
:1098A0000EF4801E8EF07F5282F440121C1542EAA4
:1098B0000507A4F2FF3464440022C94B3046394600
:1098C00004EB1E5412F050FFAB1CC3F31303022B26
:1098D00082468B464FF0000230DC002313F060FB21
:1098E000002800F0C980002C00F04B81204613F0C6
:1098F00089F8A5A3D3E9002306460F4613F0E8F83C
:10990000A3A3D3E9002304460D463046394613F09D
:10991000DFF802460B462046294612F027FF0AE0F0
:10992000AE4A93424FF0000CB4DD32463B4630461F
:10993000394612F01BFF05B0BDE8F08F4FF08043B1
:1099400012F014FF02460B465046594613F0EAF94E
:10995000064620460F4613F055F83246CDE9000181
:109960003B4630463946CDE9026713F0B1F802466E
:109970000B468046894613F0ABF887A3D3E9002352
:1099800006460F4613F0A4F885A3D3E9002312F08E
:10999000EDFE32463B4613F09BF883A3D3E9002348
:1099A00012F0E4FE32463B4613F092F880A3D3E96E
:1099B000002312F0DBFE42464B4613F089F87EA3EB
:1099C000D3E90023804689463046394613F080F8B3
:1099D0007BA3D3E9002312F0C9FE32463B4613F0C5
:1099E00077F879A3D3E9002312F0C0FE32463B4654
:1099F00013F06EF80B4602464946404612F0B6FE9A
:109A0000A5F5C223C5F5D725A3F27A4351351D43E9
:109A1000002D8046894656DD0022724B504659463D
:109A200013F056F852465B4613F052F806460F46BE
:109A3000002C68D132463B464046494612F096FE1D
:109A4000DDE9022313F044F802460B46304639465E
:109A500012F08AFE02460B465046594612F084FE2A
:109A600005B0BDE8F08F0022002300205E4913F00E
:109A700059F905B0BDE8F08F55A3D3E9002350464E
:109A8000594613F025F802460B460020554912F0BE
:109A90006BFE524606460F465B465046594613F04B
:109AA00017F802460B463046394613F011F80646C1
:109AB0000F46002C40F09A8002460B46504659460D
:109AC00012F052FE37E7002C00F0A4802EA3D3E959
:109AD0000023DDE9000112F0FBFF42464B4604463D
:109AE0000D465046594612F03FFEDDE9022312F0C2
:109AF000EFFF27A3D3E9002306460F46DDE9000167
:109B000012F0E6FF21E020A3D3E90023DDE9000104
:109B100012F0DEFF32463B4604460D4640464946BB
:109B200012F024FEDDE9022312F0D2FF18A3D3E9DC
:109B3000002380468946DDE9000112F0C9FF024694
:109B40000B464046494612F011FE02460B4630468F
:109B5000394612F009FE52465B4612F005FE0246F7
:109B60000B462046294612F0FFFD05B0BDE8F08FF8
:109B700002460B4612F0F8FD0022002313F0D2F843
:109B8000D9E600200021D6E60000E0FE422EE63FA6
:109B9000763C7935EF39EA3D44523EDF12F1C23F5F
:109BA000DE03CB966446C73F599322942449D23FA3
:109BB000935555555555E53F9FC678D0099AC33FF3
:109BC000AF788E1DC571CC3F04FA97999999D93F0A
:109BD000555555555555D53F00005043FFFFEF7F74
:109BE0000000F03F0000E03F000050C3204612F0AC
:109BF00009FF0FA3D3E900238046894612F068FFCE
:109C00000DA3D3E9002304460D464046494612F011
:109C10005FFF9AE702460B465046594612F0A4FDF4
:109C2000DDE9022312F054FF14E700BFAFF3008018
:109C30000000E0FE422EE63F763C7935EF39EA3D02
:109C4000B1F5801F2DE9F84304460D460B461ADA9C
:109C5000024621F00046324359D000295FDB002242
:109C60003B4B12F035FF3B4A0D462B4693420446D0
:109C70006FF035010CDD22462B462046294612F0B6
:109C800075FDBDE8F883334A93424FF00001F2DCE2
:109C90001815A0F2FF3008444FEAD0794844C3F3C6
:109CA000130812F0AFFEC9F57F73033348EA03557A
:109CB00006460F4620462946FFF7CEFD1EA3D3E9F0
:109CC0000023804689463046394612F001FF1CA326
:109CD000D3E9002304460D464046494612F0F8FEFB
:109CE00002460B462046294612F040FD16A3D3E952
:109CF000002304460D463046394612F0E9FE02467E
:109D00000B462046294612F031FDBDE8F8830022BB
:109D100000230020104913F005F8BDE8F88302463F
:109D20000B4612F021FD0022002312F0FBFFBDE8DC
:109D3000F88300BFAFF30080362BF111F3FE593DDD
:109D40000EE526157BCBDB3F00609F501344D33FCD
:109D500000005043FFFFEF7F000050C300000000F1
:109D60002DE9F04F23F0004757EA020493B037D0B3
:109D7000674C21F00046A64283460D4629DC9A46F0
:109D8000964625D0A74224DC614CA74279D0002D0D
:109D900080468946CDE9002377DB0024BEF1000F21
:109DA0002CD15B4B9F4200F08B805A4B9F4261D07D
:109DB000BAF1804F00F0C383574B9A451ED1002D56
:109DC0001CDB4046494613B0BDE8F04F11F040BCE3
:109DD00058B106F1404606F5801656EA0B0306D147
:109DE0004C49002013B0BDE8F08FB742CCDD4B48A2
:109DF00013B0BDE8F04F12F0BBBA0024404649460C
:109E000010F062FDBBF1000F19D126B1414B25F0D6
:109E100040429A4213D1BAF1000FC0F2CA83002D1A
:109E2000E0DA06F1404606F5801656EA040300F033
:109E3000A584012CD6D101F100431946D2E7ED0FDC
:109E4000013D54EA05034ED0354B9F426EDD03F1D0
:109E500004739F4240F3FE83324B9E424EDDBAF1C3
:109E6000000F4EDD28A3D3E900231046194612F057
:109E70002FFEB7E7BAF1000FC0F2528440464946C0
:109E8000B0E7BEF1000F82D0A3E7274B9F4228DC4A
:109E9000A3F154739F4280DD3B15A3F2FF33142BD3
:109EA00040F35484C3F134032EFA03F202FA03F3AD
:109EB0009E457FF472AF02F00102C2F102046DE729
:109EC00006F1404303F5801353EA0B0388D0154B8A
:109ED0009E4240F33B83BAF1000F12DBDDE9000143
:109EE00080E702245AE742464B461046194612F0D4
:109EF0003BFC02460B4612F015FF73E7BAF1000F68
:109F0000B0DB002000216DE79C7500883CE4377EC3
:109F10000000F07F0000F03F0000E03F74E4030029
:109F20000000E041FFFFEF3FFFFF3F43B6F5801F1A
:109F30004FF0000205DAD84B12F0CAFD6FF0340280
:109F40000E463315D54FC6F31306A3F2FF33134461
:109F500046F07F5ABE421A460D934AF4401A40F327
:109F60002F83CF4B9E4240F30D849FEDB57B8DED4B
:109F7000087B8DED0E7B9FEDB47B13468DED067B4C
:109F800001330D93AAF5801A0027DDE90623514617
:109F9000CDE90A0112F0E8FBDDE906238046894697
:109FA000DDE90A0112F0E2FB02460B460020BD4942
:109FB00012F0B8FE0A460146CDE910121346494692
:109FC0000246404612F084FD4FEA6A0343F0005314
:109FD0008C46834603F50023CDE904BCDA468B4664
:109FE000D9190023CDE902AB0293DDE902AB0020D1
:109FF00006460F4602460B465046594612F068FD8B
:10A0000002460B464046494612F0AEFBDDE9062308
:10A01000804689463046394612F0A6FB02460B467A
:10A02000DDE90A0112F0A0FB52465B4612F050FD3A
:10A0300002460B464046494612F096FBDDE91023E6
:10A0400012F046FDDDE90467CDE9060132463B46E4
:10A050003046394612F03CFD7DA3D3E90023064685
:10A060000F4612F035FD7CA3D3E9002312F07EFBEE
:10A0700032463B4612F02CFD79A3D3E9002312F0BF
:10A0800075FB32463B4612F023FD77A3D3E900234C
:10A0900012F06CFB32463B4612F01AFD74A3D3E972
:10A0A000002312F063FB32463B4612F011FD72A30F
:10A0B000D3E9002312F05AFB3246804689463B46DC
:10A0C0003046394612F004FD02460B4640464946EA
:10A0D00012F0FEFC524606460F465B46DDE90401DF
:10A0E00012F044FBDDE9062312F0F2FC32463B4657
:10A0F00012F03CFB5246804689465B465046594624
:10A1000012F0E6FC0022684BCDE90A0112F02EFBAA
:10A1100042464B4612F02AFB02980F46064632464C
:10A120003B465046594612F0D3FC002282468B46ED
:10A130005D4B3046394612F017FBDDE90A2312F079
:10A1400013FB02460B464046494612F00DFBDDE983
:10A15000042312F0BDFC3246804689463B46DDE9C9
:10A16000060112F0B5FC02460B464046494612F085
:10A17000FDFA8046894602460B4650465946CDE9CF
:10A1800004AB12F0F3FADDE902AB3DA3D3E90023FF
:10A1900050460F4612F09CFCDDE90423CDE9020194
:10A1A0003946504612F0E0FA02460B464046494610
:10A1B00012F0DAFA34A3D3E9002312F089FC34A3B5
:10A1C000D3E90023804689465046394612F080FC88
:10A1D00002460B464046494612F0C8FADDE90E2316
:10A1E00012F0C4FA80460D98894612F00BFC4246E4
:10A1F00006460F464B46DDE9020112F0B7FADDE9EB
:10A20000082312F0B3FA32463B4612F0AFFA324658
:10A210003B4650468B4612F0A7FADDE9082312F0C0
:10A22000A3FADDE9022312F09FFA02460B464046EC
:10A23000494612F099FA8046894637E0AFF300802C
:10A240000000000000000000000000000000F03FDF
:10A25000EF4E454A287ECA3F65DBC9934A86CD3F0B
:10A2600001411DA96074D13F4D268F515555D53FF1
:10A27000FFAB6FDBB66DDB3F033333333333E33F89
:10A28000000000E009C7EE3FFD033ADC09C7EE3FDE
:10A29000F5015B14E02F3EBE000040438E980300A2
:10A2A00079B60B000000F03F00000840013C54EA82
:10A2B000050300F079819FEDC87B8DED047BDDE91E
:10A2C00000120B461446CDE9023400230293DDE967
:10A2D000024508462B461146224612F045FA5246E0
:10A2E0005B4612F0F5FBDDE9002306460F464046CB
:10A2F000494612F0EDFB02460B463046394612F055
:10A3000035FA2246804689462B4650465946CDE9C5
:10A31000008912F0DDFB0B46024606460F4640461A
:10A32000494612F023FAC64B994204460D468A4626
:10A3300040F3168101F13F4303F5E003034340F08E
:10A34000F781A7A3D3E90023DDE9000112F00EFA9B
:10A350003246804689463B462046294612F004FA9A
:10A3600002460B464046494612F042FE002840F0A5
:10A37000DF81A8464FEA28534FF48012A3F2FE3340
:10A3800042FA03F35344C3F30A52AE4DA2F2FF3232
:10A390001541C3F3130423EA05010020C2F1140B95
:10A3A00044F48014BAF1000F02460B4644FA0BFB4A
:10A3B00030463946B8BFCBF1000B12F0D5F9024652
:10A3C0000B4606460F46DDE9000112F0CFF94FEAD1
:10A3D0000B5A0D46002484A3D3E9002320462946C6
:10A3E00012F076FB3246804689463B462046294697
:10A3F00012F0BAF902460B46DDE9000112F0B4F999
:10A400007BA3D3E9002312F063FB7BA3D3E90023F2
:10A4100006460F462046294612F05AFB02460B46D6
:10A420003046394612F0A2F906460F4602460B4660
:10A430004046494612F09AF942464B4604460D46BC
:10A4400012F092F902460B463046394612F08CF96A
:10A450002246804689462B462046294612F038FB84
:10A4600067A3D3E9002306460F4612F031FB66A32B
:10A47000D3E9002312F078F932463B4612F028FB6C
:10A4800063A3D3E9002312F071F932463B4612F080
:10A490001FFB61A3D3E9002312F066F932463B4665
:10A4A00012F016FB5EA3D3E9002312F05FF93246E7
:10A4B0003B4612F00DFB02460B462046294612F0A1
:10A4C00053F906460F4602460B462046294612F02F
:10A4D000FFFA0022CDE900014FF0804330463946B3
:10A4E00012F042F902460B46DDE9000112F01AFCB7
:10A4F000424606460F464B462046294612F0E8FAE9
:10A5000042464B4612F032F902460B463046394677
:10A5100012F02AF922462B4612F026F902460B4683
:10A520000020494912F020F98A44BAF5801FC0F290
:10A5300039815146DDE9042312F0CAFA52E4424659
:10A540004B464046494612F0C3FA4BE4BAF1000FBD
:10A55000BFF6D7ACDDE90034184604F1004141E410
:10A560003A4B21F00048984540F3FF80384B0B44AC
:10A5700003430CD132463B4612F0F6F802460B4636
:10A58000DDE9000112F020FD00283FF4F3AEDDE923
:10A59000040125A3D3E9002312F09AFA22A3D3E9F8
:10A5A000002312F095FA1DE49FED217B8DED047BD5
:10A5B00085E602460B460020234912F0B3FB2EE449
:10A5C0009FED1D7B8DED087B8DED0E7B9FED027B5E
:10A5D00000278DED067BD8E4000000000000F03F6E
:10A5E000FE822B654715973C00000000432EE63F96
:10A5F000EF39FAFE422EE63F396CA80C615C20BEB2
:10A60000D0A4BE726937663EF16BD2C541BDBB3E78
:10A610002CDE25AF6A56113F93BDBE166CC1663F56
:10A620003E5555555555C53F59F3F8C21F6EA50106
:10A63000000000000000F0BF00000000000000006B
:10A64000FFFF8F40FFFF0F000000F03FFFCB904067
:10A6500000346F3F684B9E427FF750AC674B9E4281
:10A660003FF7FDAB0022654B12F07EF852A3D3E911
:10A67000002306460F4612F02BFA51A3D3E900231C
:10A68000804689463046394612F022FA0022824638
:10A690008B465B4B3046394612F01AFA02460B469F
:10A6A00049A1D1E9000112F05FF832463B4612F0B1
:10A6B0000FFA02460B460020524912F055F8324676
:10A6C000CDE902013B463046394612F001FA024616
:10A6D0000B46DDE9020112F0FBF93DA3D3E90023AB
:10A6E00012F0F6F902460B465046594612F03CF875
:10A6F00002460B4606460F464046494612F036F8DB
:10A7000042464B46002082468B4612F02DF8024608
:10A710000B463046394612F027F880468946C5E593
:10A7200042464B460020354912F0FCFAFFF75ABB6F
:10A73000DDE9040128A3D3E9002312F0C9F926A317
:10A74000D3E9002312F0C4F9FFF74CBBBEF1000FB0
:10A750007FF453ABC3F1140347FA03F202FA03F395
:10A760009F4223D07446FFF720BB264B98453FF706
:10A7700001AEDDE90223924693462BE602460B46E4
:10A78000FFF7B3BB9FED167B8DED087B9FED167B2E
:10A790008DED0E7B9FED167B4FF480278DED067BB4
:10A7A000FFF7F3BB5A4601F04FFDC3E602F001028A
:10A7B000C2F10204FFF7F9BA000000604715F73F45
:10A7C00044DF5DF80BAE543E555555555555D53FB4
:10A7D000FE822B654715F73F9C7500883CE4377E69
:10A7E0000000004003B8E23F06D0CF43EBFD4C3EF3
:10A7F000000000000000F83FFEFFEF3F0000F03FC8
:10A800000000D03F0000E03F2DE9F0479C4B21F0D5
:10A8100000479F4290B08046894640F38E80994B16
:10A820009F420C46924626DC00298BA3D3E90023E5
:10A8300040F3B08111F098FF934B9F4204460D46C0
:10A8400000F0908086A3D3E9002311F08DFF02462B
:10A850000B46CAE900232046294611F085FF80A354
:10A86000D3E9002311F080FF0125CAE9020128463F
:10A8700010B0BDE8F087854B9F4240F39080844B39
:10A880009F4265DC3D15A5F21645A7EB0553194619
:10A890001F46064612F0CCFB12F0B4F880468946FB
:10A8A00042464B4630463946CDE90A8911F05CFFF5
:10A8B0000022784B12F00CF98946804612F0B8FB62
:10A8C00012F0A0F806460F4632463B46404649463F
:10A8D000CDE90C6711F048FF00226E4B12F0F8F83A
:10A8E00000220023CDE90E0112F05AFB002800F0EF
:10A8F0006F81002330463946002212F051FB0028B8
:10A9000014BF01230223644A019202212A460091C6
:10A910000AA8514600F08CFB002C054614DADAF840
:10A920000420DAF80C3002F1004203F10043454202
:10A93000CAF80420CAF80C3006E000200021C2E961
:10A940000089C2E902010025284610B0BDE8F08761
:10A9500002460B4611F008FF0025CAE90201CAE9C8
:10A960000001F1E740A3D3E9002311F0FDFE40A36D
:10A97000D3E900230D46044611F0F6FE02460B46CD
:10A98000CAE900232946204611F0EEFE38A3D3E998
:10A99000002311F0E9FE0125CAE90201D4E70FF016
:10A9A00093FF35A3D3E900238046894612F090F83F
:10A9B00000223A4B11F0DAFE12F03AFB054612F093
:10A9C00021F825A3D3E90023CDE9060112F080F890
:10A9D00002460B464046494611F0C6FE20A3D3E985
:10A9E0000023CDE90201DDE9060112F071F81F2D07
:10A9F00080468946CDE9048954DC294B6A1E53F808
:10AA000022309F424ED002460B46DDE9020111F092
:10AA1000ABFE80468946CAE9008942464B46DDE9DD
:10AA2000020111F0A1FEDDE9042311F09DFE002CCE
:10AA3000CAE9020188DA09F1004401F100436D42DC
:10AA4000CAF80080CAF80440CAF80800CAF80C30F6
:10AA50007AE700BFAFF3008000004054FB21F93FCC
:10AA60003163621A61B4D03D0000601A61B4D03D18
:10AA70007370032E8A19A33B83C8C96D305FE43F0E
:10AA8000FB21E93F7BD90240FB21F93FFB21394102
:10AA9000FFFFEF7F0000704144F303000000E03F40
:10AAA000C4F20300DDE90423DDE9020111F05CFEDC
:10AAB0003F15C1F30A53FB1A80468946102BCAE999
:10AAC0000089AADD58A3D3E90023DDE9060111F0CE
:10AAD000FFFF8046894602460B46DDE9020111F080
:10AAE00043FE02460B46DDE90201CDE9082311F0E1
:10AAF0003BFE42464B4611F037FE4DA3D3E90023FF
:10AB000080468946DDE9060111F0E2FF42464B46E8
:10AB100011F02AFE0B46CDE904010246DDE90801E9
:10AB200011F022FEC1F30A53FF1A80468946312FE5
:10AB3000CAE900896CDD41A3D3E90023DDE9060100
:10AB400011F0C6FFDDE9088906460F4602460B46AE
:10AB50004046494611F008FE02460B46404649462B
:10AB6000CDE9022311F000FE32463B4611F0FCFD18
:10AB700034A3D3E9002306460F46DDE9060111F0B0
:10AB8000A7FF32463B4611F0EFFD02460B46CDE9EA
:10AB900004233AE711F0EAFD274B9F4204460D4695
:10ABA00018D01FA3D3E9002311F0E0FD02460B46A5
:10ABB000CAE900232946204611F0D6FD18A3D3E99F
:10ABC000002311F0D3FD4FF0FF35CAE90201BBE6C7
:10ABD000032398E614A3D3E9002311F0C7FD14A3BF
:10ABE000D3E900230D46044611F0C0FD02460B4692
:10ABF000CAE900232946204611F0B6FD0CA3D3E98B
:10AC0000002311F0B3FD4FF0FF35CAE902019BE6C6
:10AC10009DED087B8DED027BFFE600BFAFF300806A
:10AC20003163621A61B4D03D0000601A61B4D03D56
:10AC30007370032E8A19A33BFB21F93F0000002EFD
:10AC40008A19A33BC14920259A837B390000000063
:10AC5000594A2DE9F84F21F00048904506460F4625
:10AC60002BDC564B0029B4BF554D564D98454FF03F
:10AC7000000410DC544B984570DC4DA3D3E900234D
:10AC800011F074FD0022514B12F0B2F9D8B13046E8
:10AC90003946BDE8F88F4E4B98457CDD4D4B9845C5
:10ACA00044DD013398453ED03046394640A3D3E9D0
:10ACB000002311F00DFFBDE8F88F02460B4611F09E
:10ACC00055FDBDE8F88F304639460FF0FDFD01F027
:10ACD0007FF806460F4632463B463046394611F06D
:10ACE00045FD324682468B463B463046394611F09A
:10ACF000EFFE002280468946344B3046394611F03B
:10AD000035FD02460B464046494612F00BF8024616
:10AD10000B465046594611F027FD22462B4611F0AE
:10AD2000D7FEBDE8F88F2C4B9842BDD83046394647
:10AD30000FF0CAFD0022234B11F0CAFEFEF714FCEF
:10AD400006460F4602460B462046294611F0C0FE35
:10AD500032463B4611F0BCFEBDE8F88F0FF0B4FD63
:10AD600001F036F81D4B984506460F46B3DD00222C
:10AD7000164B11F0FBFC02460B463046394611F0EB
:10AD8000D1FF32463B4611F0F1FC22462B4611F032
:10AD90009FFEBDE8F88F0FF097FDFEF7E5FB02463A
:10ADA0000B462046294611F093FEBDE8F88F00BF00
:10ADB0003374AC3C1F7BAC7FFFFFEF7FFFFF354060
:10ADC0000000E0BF0000E03FFFFF2F3E0000F03F2B
:10ADD000412E8640CD3386407DF8B98FFFFFEF3F8F
:10ADE0002DE9F04F21F00048B8F1795F85B00646B3
:10ADF0000F4692469B466BDA12F01AF9002800F0D3
:10AE0000EA8032463B463046394611F061FE74A373
:10AE1000D3E9002304460D4611F05AFE72A3D3E98C
:10AE2000002311F0A3FC22462B4611F051FE70A323
:10AE3000D3E9002311F098FC22462B4611F048FE7E
:10AE40006DA3D3E9002311F091FC22462B4611F0AB
:10AE50003FFE6BA3D3E9002311F086FC22462B466C
:10AE600011F036FE68A3D3E9002311F07FFC2246DF
:10AE70002B4611F02DFECDE900010022664B204645
:10AE8000294611F025FEDDE900238046894620464B
:10AE9000294611F01DFE524604460D465B463046DB
:10AEA000394611F015FE02460B462046294611F0A0
:10AEB0005BFC02460B464046494611F055FC0246F3
:10AEC0000B460020554911F04FFC05B0BDE8F08F4E
:10AED00002460B4611F0FCFD41A3D3E900230446D2
:10AEE0000D4611F0F5FD40A3D3E9002311F03EFC1F
:10AEF00022462B4611F0ECFD3DA3D3E9002311F0CF
:10AF000033FC22462B4611F0E3FD3BA3D3E900239B
:10AF100011F02CFC22462B4611F0DAFD38A3D3E9C0
:10AF2000002311F021FC22462B4611F0D1FD36A35F
:10AF3000D3E9002311F01AFC2B46224611F0C8FD7C
:10AF4000374B9845CDE9000197DD364B984539DC04
:10AF5000A8F500130022002030499046994611F0D0
:10AF600003FCCDE9020100222B4B2046294611F0BB
:10AF7000AFFD42464B4611F0F7FBDDE9002380466A
:10AF800089462046294611F0A3FD524604460D4647
:10AF90005B463046394611F09BFD02460B46204683
:10AFA000294611F0E1FB02460B464046494611F0A6
:10AFB000DBFB02460B46DDE9020111F0D5FB05B0D3
:10AFC000BDE8F08F9FED127B4FF000088DED027B06
:10AFD000DFF85490C7E71149002005B0BDE8F08FB5
:10AFE000D43888BEE9FAA8BDC4B1B4BD9EEE213EF6
:10AFF000AD529C804F7E923E9015CB19A001FA3E37
:10B000007751C1166CC1563F4C5555555555A53F06
:10B01000000000000000E73F0000E03F0000F03FBC
:10B020003233D33F0000E93F0000D23F0000000070
:10B030002DE9F04FADF51B7D9F4CA49E9F4D54F81C
:10B04000264007942646D41E85FB0475E417C4EBFE
:10B05000A50424EAE4741D460A93631CA3EB83034E
:10B06000013D02EBC30306932B460B940395651B2E
:10B07000F418049008911AD42C44002600270134B7
:10B080000DF18808DDF8949208E059F8250011F0D8
:10B09000B9FC0135A542E8E8020108D0002DF4DA38
:10B0A000013530463946A542E8E80201F6D1079B52
:10B0B000002BC0F2DF83079B03F1010B0A9B22A93F
:10B0C000DB001A4601EB03090093049B0DF5E47ABB
:10B0D00019460AEBCB0B01EB0208039B002BC0F2D5
:10B0E000F582049C4D460026002775E90223F4E80A
:10B0F000020111F0EDFC02460B463046394611F0D4
:10B1000035FB444506460F46EFD1EAE80267DA45CB
:10B1100009F10809E1D107990098049C009101F117
:10B120008043013B9B0020441A1F83460EA8024423
:10B1300003440C920D93009A9AA901EBC203002AD2
:10B1400053E9284529DD0DF5E47A0AEBC2080DF133
:10B15000340900225A4B2046294611F0B9FC11F05F
:10B1600067FF11F04FFC0022564B06460F4611F0C8
:10B17000AFFC02460B462046294611F0F5FA11F0C5
:10B1800057FF78E9022349F8040F3946304611F099
:10B19000EDFAD04504460D46DBD1DDF81890204687
:10B1A00029464A4601F050F800224FF07F530446EA
:10B1B0000D4611F08DFCFCF75FFD0022424B11F0B3
:10B1C00087FC02460B462046294611F0CDFA0D4673
:10B1D000044611F02DFF804611F014FC0B46024688
:10B1E0002946204611F0C0FA4B46002B06460F4672
:10B1F00040F3F980009A0EA9013AC9F1180351F8F9
:10B20000225045FA03F101FA03F30EA8EB1A40F8B5
:10B210002230C9F11705884443FA05F5002D6DDD8C
:10B22000009B002B08F1010840F36F820E9C002C5C
:10B2300040F01683009B012B40F38F820EAA01235E
:10B2400052F8044F002C00F08382581C0EAAC4F15F
:10B25000807442F82340009A824219DD0EAA0EAC97
:10B2600052F820106FF07F42511A44F820100099D4
:10B27000023399420CDD1046009A0EA901EB8303BC
:10B2800001EB82011A68821A43F8042B8B42F9D130
:10B29000069B002B1ADD069B012B4FF0010440F0AA
:10B2A0003C82009B5A1E0EAB0EA953F82230C3F30A
:10B2B000160341F822303CE2E4F70300ABAAAA2AC5
:10B2C0000000703E0000704100002040022D15D1AA
:10B2D00032463B460020924911F046FA06460F4698
:10B2E000069A8F49002000F0AFFF02460B46304619
:10B2F000394611F039FA022506460F46002200238E
:10B300003046394611F04CFE002800F03782009A92
:10B31000079B501E83420FDC02F18043013B0EAAC3
:10B320000D9C02EB8303002253F80419A34242EA66
:10B330000102F9D1002A67D1079B0EAA013B52F8FE
:10B340002330002B40F018820C9A012352F8041984
:10B3500001330029FAD0009AD31802F1010A9A4564
:10B3600009933DDC009B0A990B9A0B4409990AEB5F
:10B370000208994622AB08F1804803EBC9098B18F3
:10B38000A59A08F1FF3802EB880872AA02EBCA0AF4
:10B39000A59A02EB8303009358F8040F11F032FBD7
:10B3A000039B002BE9E802014FF000064FF0000775
:10B3B00011DB049C4D4675E90223F4E8020111F00B
:10B3C00087FB02460B463046394611F0CFF95C4503
:10B3D00006460F46EFD1009B9845EAE80267DBD1AD
:10B3E000099B0093A7E606D1009B0EAA013B52F8E9
:10B3F0002350ED1512E700224A4B11F0EFFD002813
:10B4000040F06E81054679E70EA9039551F820308A
:10B410000699CDF8248018390246009006916BB940
:10B4200000F18043013B0EA800EB830353F80409AD
:10B43000013A18390028F9D000920691069A384945
:10B44000002000F001FF009B002B04460D46C0F2D7
:10B45000F781DA0072A901EB020B06920EAA02EB49
:10B460008306DFF8C4904FF000080BF1080704369C
:10B4700056F8040D11F0C6FA22462B4611F028FBAF
:10B480004B4667E9020142462046294611F020FB5F
:10B490000EAB9E4204460D46EAD14AACDDF81C9044
:10B4A00004944FF0000AB9F1000FC0F22B81DFF8CD
:10B4B0007C805D4618A1D1E9000100260027002408
:10B4C00003E0544510DCF8E80201F5E8022311F02E
:10B4D000FFFA02460B463046394611F047F901346F
:10B4E000A14506460F46ECDA049B03EBCA03ABF119
:10B4F000080BC3E9006770AB9B450AF1010AD2D182
:10B50000A49B049C032B00F28980DFE803F0C58E26
:10B510008E1100BFAFF3008000000040FB21F93F17
:10B520000000F03F0000E03F0000703E68DD0300D7
:10B53000009B002B40F38181069A04EB020ADAE9B2
:10B54000008902F1080525440DF5987B1AED027B70
:10B5500042464B4651EC170B8DED047B11F006F97A
:10B5600006460F4602460B46DDE9040111F0FCF8E1
:10B5700042464B4611F0FAF865E902015D45B046D6
:10B58000B9466AE90267E1D1009B012B40F355817E
:10B59000069BE518D5E9008903F1080B04EB0B0ABB
:10B5A00015ED027B42464B4651EC170B8DED007BAF
:10B5B00011F0DCF806460F4602460B46DDE90001B5
:10B5C00011F0D2F84B46424611F0D0F86AE9020178
:10B5D0004EAB5345B046B94665E90267E0D100205D
:10B5E000002104EB0B0575E9022311F0BFF8AA4511
:10B5F000F9D1039B002B00F00A816268E368089F81
:10B600002568A4683D6002F1004203F1004301F1A6
:10B6100000417A60FB60BC6038617961099B03F08E
:10B6200007000DF51B7DBDE8F08F069D083525440C
:10B630000020002175E9022311F098F8A542F9D104
:10B64000039B002B00F0D280089E024601F10043CC
:10B6500086E80C000B460246D4E9000111F084F89C
:10B66000009B002B0BDD4CAD0124F5E8022311F00B
:10B670007DF8009B0134A342F7DA039B13B101F17B
:10B6800000431946089BC3E90201099B03F0070028
:10B690000DF51B7DBDE8F08F069D083500200021CB
:10B6A000254475E9022311F061F8AC42F9D1039BFE
:10B6B00013B101F100431946089BC3E90001099B3E
:10B6C00003F007000DF51B7DBDE8F08F0026002775
:10B6D000EAE80267DA4509F108097FF4FEAC1AE5E9
:10B6E000009B002B08F10108C8BF02253FF79EAD63
:10B6F00032463B460020614911F036F802250646E5
:10B700000F46FBE500260027EEE6069B002B27DD13
:10B710000024069B012B3FF4C4AD022B09D1009BF2
:10B720005A1E0EAB0EA953F82230C3F3150341F88D
:10B730002230022D7FF4E2AD32463B4600204F49D5
:10B7400011F012F806460F46002C3FF4D7ADC7E5BE
:10B750000099013399427FF473AD069B002BD8DC2E
:10B76000022D7FF4CBAD32463B460020434910F01A
:10B77000FBFF06460F46C1E50123ECE53946069F6F
:10B7800003957A423046CDF8248000F05DFD00221A
:10B790003B4B04460D4611F021FC002843D000220B
:10B7A000384B2046294611F093F911F041FC06462A
:10B7B00011F028F90022324B11F08AF902460B46AB
:10B7C0002046294610F0D0FF11F032FC00990B46BC
:10B7D00001331A4600933B46183306930B460EA9D5
:10B7E00041F82300134641F8236027E6089B0246F0
:10B7F000C3E900010B46D4E9000110F0B5FF009B3E
:10B80000002B3FF730AF089BC3E902013DE7D4E9C5
:10B810000067D4E90223089DC5E90401C5E9006772
:10B82000C5E90223FAE62946204611F001FC009AF8
:10B830000EA941F8220001E64AAC00200021D8E61A
:10B84000A49B032B3FF6EAAE01A252F823F000BFFF
:10B850006FB8020067B8020067B8020039B802008A
:10B8600001200023F2E4002000214AACE8E6002099
:10B8700000211CE70A9BDB0000934CE40000F03F32
:10B88000000070410000703E2DE9F04F21F00046AD
:10B89000B6F1795F85B004460D469046994604DAC4
:10B8A00011F0C6FB002800F0858022462B4620467A
:10B8B000294611F00DF906460F4602460B46204672
:10B8C000294611F005F941A3D3E9002382468B46AE
:10B8D0003046394611F0FCF83EA3D3E9002310F0BE
:10B8E00043FF32463B4611F0F3F83CA3D3E9002373
:10B8F00010F03CFF32463B4611F0EAF839A3D3E999
:10B90000002310F031FF32463B4611F0E1F837A337
:10B91000D3E9002310F02AFF0E9BCDE900019BB371
:10B920000022294B4046494611F0D2F8DDE90023B8
:10B93000CDE902015046594611F0CAF802460B46BD
:10B94000DDE9020110F010FF32463B4611F0C0F86D
:10B9500042464B4610F008FF19A3D3E900230646E0
:10B960000F465046594611F0B3F802460B46304692
:10B97000394610F0FBFE02460B462046294610F0E1
:10B98000F3FE05B0BDE8F08F02460B46304639465F
:10B9900011F09EF80AA3D3E9002310F0E5FE524609
:10B9A0005B4611F095F822462B4610F0DFFE05B0FD
:10B9B000BDE8F08F2046294605B0BDE8F08F00BFF6
:10B9C000495555555555C53F0000E03F7CD5CF5AE8
:10B9D0003AD9E53DEB9C2B8AE6E55A3E7DFEB15710
:10B9E000E31DC73ED561C119A0012A3FA6F8101179
:10B9F0001111813F000000002DE9F04FBE4C21F0F5
:10BA0000004687B0A64282468B460F46CDE900230A
:10BA10001BDC11F00DFB002837D153461E43109B51
:10BA20000133334300F0B381109B012B00F0C88138
:10BA300052465B460020B14911F074F904460D46A8
:10BA40002046294607B0BDE8F08FAD4B9E421CDD75
:10BA50000029C0F2A98152465B4687A1D1E90001C5
:10BA600010F082FEDDE9002304460D4684A1D1E9F1
:10BA7000000110F079FE9FED847B22462B468DED70
:10BA8000007B10F073FE82468B4652465B46504662
:10BA9000594611F01DF802460B468046894611F0C2
:10BAA00017F8424604460D464B465046594611F09B
:10BAB0000FF877A3D3E90023CDE9020120462946F8
:10BAC00011F006F874A3D3E9002310F04FFE2246CC
:10BAD0002B4610F0FDFF72A3D3E9002310F046FEC1
:10BAE00022462B4610F0F4FF6FA3D3E9002310F099
:10BAF0003DFE22462B4610F0EBFF6DA3D3E9002359
:10BB000010F034FE22462B4610F0E2FF6AA3D3E980
:10BB1000002310F02BFE42464B4610F0D9FF68A3DD
:10BB2000D3E90023CDE904012046294610F0D0FFD7
:10BB300065A3D3E9002310F019FE22462B4610F02E
:10BB4000C7FF63A3D3E9002310F010FE22462B4663
:10BB500010F0BEFF60A3D3E9002310F007FE2246D9
:10BB60002B4610F0B5FF5EA3D3E9002310F0FEFDD5
:10BB700022462B4610F0ACFF5BA3D3E9002310F064
:10BB8000F5FD02460B46DDE9040110F0EFFDDDE9AD
:10BB9000022310F09DFFDDE9004522462B4610F000
:10BBA000E5FD42464B4610F093FF02460B46204609
:10BBB000294610F0DBFD4EA3D3E9002304460D46D1
:10BBC000DDE9020110F084FF22462B4610F0CEFD85
:10BBD0000B460246804689465046594610F0C6FD3F
:10BBE000474B9E4204460D4600F38E80109B012B6E
:10BBF0003BD002460B460020404911F093F8002448
:10BC000006460F462046294652465B46CDE9006768
:10BC1000CDE90201009410F0A7FDDDE900AB02467A
:10BC20000B464046494610F09FFD52465B4610F0D9
:10BC30004FFF524604460D465B46DDE9020110F017
:10BC400047FF00222F4B10F091FD02460B46204685
:10BC5000294610F08BFD32463B4610F039FF524624
:10BC60005B4610F083FD04460D462046294607B08A
:10BC7000BDE8F08FAFF30080182D4454FB21E93F5D
:10BC8000075C143326A6813C000000000000000081
:10BC9000D47ABF74702AFB3EE9A7F0320FB8123F86
:10BCA00068108D1AF726303F1583E0FEC8DB573F3A
:10BCB00093846EE9E326823FFE41B31BBAA1AB3FFA
:10BCC000735360DBCB75F3BEA69237A0887E143F1A
:10BCD0000165F2F2D844433F280356C9226D6D3FF7
:10BCE00037D60684F464963F7AFE10111111C13FD5
:10BCF000635555555555D53FFFFF2F3E0000F0BF0A
:10BD00002794E53F0000F03F109810F07BFE22469C
:10BD1000CDE900012B462046294610F0D9FEDDE989
:10BD20000023CDE902012046294610F01FFD0246FE
:10BD30000B46DDE9020110F0F5FF42464B4610F0DC
:10BD400013FD02460B465046594610F00DFD0246C3
:10BD50000B4610F00BFD02460B46DDE9000110F02A
:10BD600003FD0446B81700F00200C0F101000D46C3
:10BD700010F048FE02460B462046294610F0A8FE69
:10BD800004460D462046294607B0BDE8F08F5046D0
:10BD900059460EF099FD02460B4600200A4910F064
:10BDA000C1FF04460D4660E7DDE9004501F10041B1
:10BDB000224605F1004382468B46CDE900234AE640
:10BDC00054465D4651E700BF0000F03F0000000010
:10BDD0002DE9F04FD24A21F00043934285B08246CC
:10BDE0008B460C462DD9CF4A93421AD8002C80F2AC
:10BDF0001681B5A3D3E900235046594610F0B6FC8E
:10BE00000022002311F0D6F8C0B9B1A3D3E9002372
:10BE10005046594610F05CFE02460B460020C249CF
:10BE200008E1C24A934240F2D0800346C1F31302B4
:10BE3000134340F0F481002980F2C4800020BC4903
:10BE4000C0E0BC4A934200F22981BB4A934240F2CF
:10BE5000DE80002301930022B84B5046594610F073
:10BE600037FE06460F4602460B465046594610F02E
:10BE70002FFE99A3D3E9002304460D4610F028FEB7
:10BE800097A3D3E9002310F071FC22462B4610F053
:10BE90001FFE95A3D3E9002310F066FC22462B4633
:10BEA00010F016FE92A3D3E9002310F05FFC2246A7
:10BEB0002B4610F00DFE90A3D3E9002310F054FCA4
:10BEC00022462B4610F004FE00229D4B10F04EFC43
:10BED0008046894602460B463046394610F0F8FD4A
:10BEE00002460B460020974910F03EFC06460246EB
:10BEF0000B460F464046494610F036FC3246804617
:10BF000089463B465046594610F0E2FD02460B4634
:10BF100000208D4910F028FC02460B464046494659
:10BF200010F000FF22462B4610F0D2FD019E024683
:10BF30000B46002E38D0DDE9026732463B4610F052
:10BF400013FC52465B4610F0C3FD32463B4610F0F0
:10BF50000BFC2B46224610F007FC019B01330646E2
:10BF60000F4600F00F81019B012B00F0F180019B37
:10BF70000133392B39D8019B132B40F31281019CDB
:10BF8000C4F57F75033500222B0510F0EFFB024648
:10BF90000B465046594610F0E7FB0022684B10F064
:10BFA000E5FB01EB04510DE05046594610F090FDC1
:10BFB00022462B4610F0D8FB02460B465046594607
:10BFC00010F0D2FB05B0BDE8F08F4DA3D3E90023FC
:10BFD00011F00EF800283FF409AF4BA3D3E900237A
:10BFE0001046194610F074FDECE752465B4610F01F
:10BFF000BBFB02460B460020514910F0B5FB019AED
:10C000004F4B01EB0251002210F0AEFBDAE73EA3EA
:10C01000D3E9002310F0AAFB02460B46CAE72CA383
:10C02000D3E900235046594610F052FD0B464349D0
:10C030000246002010F09AFB10F0FAFF019010F079
:10C04000E1FC33A3D3E9002306460F4610F040FD80
:10C0500002460B465046594610F086FB2EA3D3E904
:10C060000023804689463046394610F031FD0646A9
:10C070000F4632463B464046494610F075FB0246A5
:10C080000B4682468B464046494610F06DFB3246D1
:10C090003B4610F069FBCDE90201DCE62B4A9342F6
:10C0A00000F2958000291AA3D3E90023C0F2AC80E6
:10C0B00010F05AFB012380468946019316A7D7E961
:10C0C0000067D6E7AFF3008059F3F8C21F6EA501F1
:10C0D000FE822B654715F73F2DC3096EB7FD8ABE5B
:10C0E0003952E686CACFD03EB7DBAA9E19CE143F9E
:10C0F0008555FE19A0015A3FF41011111111A13FED
:10C10000EF39FAFE422E86409C7500883CE4377E6B
:10C110000000E0FE422EE63F763C7935EF39EA3DFD
:10C1200079684340412E86400000E0BFFFFFEF7F6B
:10C130000000F0BF422ED63FFFFF8F3C0000E03FE3
:10C140000000F03F0000084000001840B1A2F03F9E
:10C150000022394B5046594610F02CFF002844D09D
:10C16000504659460022354B10F000FB02460B4664
:10C170003046394610F0F8FA00224FF0404310F0F4
:10C18000A7FC1FE702460B465046594610F0ECFA52
:10C1900000222A4B10F09CFC0022284B10F0E4FAFD
:10C1A00010E7019C4FF400132341C3F17F5752461F
:10C1B0005B4610F0D9FA002607F5401702460B46F9
:10C1C0003046394610F0D0FA01EB0451FAE616A3D6
:10C1D000D3E9002310F07CFC002C02460B464FF004
:10C1E0000000FFF61CAE154924E732463B46504698
:10C1F000594610F0B9FA02460B4610F0B7FA002281
:10C200000F4B10F0B3FADDE610F0B0FA4FF0FF3349
:10C2100080468946019306A7D7E9006729E70246C9
:10C220000B4610F0A3FACDE6FE822B654715F73FCB
:10C23000763C7935EF39EABD0000D0BF0000E03F21
:10C240000000F03F00000000F8B5C1F30A560446B4
:10C250000D460B4617460EBB21F0004303438646AE
:10C2600025D00022344B10F033FC344A9742044668
:10C270000D460B462ADBC1F30A56363E3E4440F2D9
:10C28000FE72964228DC002E12DD23F0FF4323F4D9
:10C29000E00343EA065520462946F8BD40F2FF7206
:10C2A0009642EBD102460B4610F060FAF8BDF8BD9D
:10C2B00016F1350F1DDA4CF250339F4222462B46C1
:10C2C00025DC19A1D1E9000110F0C0F916A3D3E9CA
:10C2D000002310F0FDFBF8BD22462B4614A1D1E946
:10C2E000000110F0B3F912A3D3E9002310F0F0FB22
:10C2F000F8BD23F0FF4323F4E003363643EA065546
:10C300002046294600220E4B10F0E2FBF8BD08A1A2
:10C31000D1E9000110F09AF905A3D3E9002310F048
:10C32000D7FBF8BDAFF3008059F3F8C21F6EA5012B
:10C330009C7500883CE4377E00005043B03CFFFF12
:10C340000000903C10B5054C237833B9044B13B171
:10C350000448AFF300800123237010BDE88700205C
:10C36000000000003CF903000C4B43B10C480D49A0
:10C3700010B5AFF300800C48036823B910BD0A481C
:10C38000036833B97047094B002BF7D0BDE8104064
:10C390001847064B002BF5D0184700BF00000000DF
:10C3A0003CF90300EC8700202C82002000000000F4
:10C3B000154B002B08BF134B9D46A3F5803A002177
:10C3C0008B460F461348144A121A11F022F90F4BEC
:10C3D000002B00D098470E4B002B00D09847002030
:10C3E000002104000D000D48002802D00C48AFF3D6
:10C3F000008010F061F92000290004F0FBFF10F02C
:10C4000047F900BF00000800000004200000000001
:10C410000000000000840020748F00200000000055
:10C420000000000070B504460E4600F0D1FA88B155
:10C430000368DB6A05469847082C0CD0A4F1090371
:10C44000012B14D93246214610230D20BDE870403F
:10C4500004F012B970BD2B6828465B6A9847022821
:10C46000F0DC2B6828461B6A04219847EAE72B6812
:10C4700028465B6A98470528E4DC2B6828461B6A37
:10C4800008219847DEE700BF30B52DED028B83B061
:10C49000054600F09DFA044640B10368DB6A984700
:10C4A000032D50D8DFE805F0373F47080190019889
:10C4B00003B0BDEC028B30BD204607F0FDF807EE5F
:10C4C000900A2046F8EEE78A07F006F907EE900A90
:10C4D0002046B8EEE78A07F00FF968EE087A07EE13
:10C4E000100AE8EEA87AB8EEC77AE7EE077AF5EE1A
:10C4F000407AF1EE10FAB1EEE78A03D517EE900A12
:10C500000EF02EFFFDEEC87ACDED017A019803B052
:10C51000BDEC028B30BD204603B0BDEC028BBDE804
:10C52000304007F0C9B8204603B0BDEC028BBDE82F
:10C53000304007F0D1B8204603B0BDEC028BBDE817
:10C54000304007F0D9B800230193B0E710B500F0F0
:10C550003FFA20B10368BDE810405B6B184710BD7F
:10C5600038B5054600F034FA58B10368DB6A044672
:10C57000984745B1012D04D12046BDE83840FBF76E
:10C5800093B8002038BD2046BDE83840FBF76CB8B2
:10C5900010B5044600F01CFA28B1036821461B6A56
:10C5A000BDE81040184710BD0048704716FCFFFF5B
:10C5B000704700BF10B5034B0360044606F05AFEF7
:10C5C000204610BD14EC030010B5054B0360044673
:10C5D00006F050FE204610F0BDFF204610BD00BF03
:10C5E00014EC03002DE9F043AC4F3C6885B01CB15E
:10C5F000204605B0BDE8F0834FF0FF31012001F087
:10C6000025FDC0B204F0CCFB002800F06D810C20A9
:10C6100010F0A2FF03210546512001F017FDDFF8BD
:10C620009CE29F4B064606F00F08C6F3031916F46A
:10C63000807618BF73469B4841464A4605F0D2FFB4
:10C64000321C18BF01224B46414628460AF068FAC0
:10C650009548AC6005F0C6FF4FF0FF31032001F0B4
:10C66000F5FCC0B204F09CFB4FF0FF310446022001
:10C6700001F0ECFCC0B204F093FB002C00F0F88059
:10C68000002800F0F5800146204604F0D7F8064661
:10C69000002800F025814FF0FF31462001F0D6FC44
:10C6A000A0F130038046382B00F2B480DFE803F0BD
:10C6B00097B297B2B2B2B2B27CB263B246B2B2B281
:10C6C000B2B2B2B2B2B2B2B2B2B2B2B2B2B2B2B24A
:10C6D000B2B2B2B2B2B2B2B2B2B2B2B2B2B2B2B23A
:10C6E000B2B2B2B2B2B2B2B21D004FF0FF3101200D
:10C6F00001F0ACFCC0B204F053FB8046542010F0B3
:10C700002BFF4FF0050E682304468DE80840424693
:10C7100031462B4609F0F6FB2046A86003689B6A69
:10C720009847A8680368DB6A9847604805F05AFF95
:10C730002C4620463D6005B0BDE8F0834FF0FF3148
:10C74000012001F083FCC0B204F02AFB04462C2037
:10C7500010F002FF224631463C23804608F02EFCB2
:10C76000402010F0F9FE4146044605232A4608F011
:10C770001FFD2046D1E74FF0FF31012001F066FC9C
:10C78000C0B204F00DFB8046482010F0E5FE4FF0EB
:10C79000050E3A2304468DE80840424631462B46B2
:10C7A00009F008FB2046B8E74FF0FF31012001F007
:10C7B0004DFCC0B204F0F4FA8046482010F0CCFEE4
:10C7C0004FF0050E382304468DE8084042462B46BC
:10C7D000314609F0EFFA364B236020469DE74FF0D3
:10C7E000FF31012001F032FCC0B204F0D9FA8146D9
:10C7F000502010F0B1FE1FFA88F34FF0050E0446EA
:10C8000000934A463146CDF804E02B4609F058F92A
:10C81000204682E732680124002301940094D2F874
:10C820002080AB600F220DF10F0332213046C0474C
:10C83000002845D14FF0320841461E4805F0D2FE8F
:10C840004FF0FF31012001F001FCC0B204F0A8FA62
:10C850008146502010F080FE0523044601934A468D
:10C86000CDF8008031462B4609F02AF9204654E7DE
:10C87000114805F0B7FE4FF0FF31192001F0E6FB3B
:10C88000C0B204F08DFA4FF0FF310446182001F0D9
:10C89000DDFBC0B204F084FAF5E600BF0488002096
:10C8A000F8DD030000DE030020DE0300B8DE030035
:10C8B000B8DD0300DCDE030030DE0300F0DD030042
:10C8C000336801940094D3F820800F220DF10F03F8
:10C8D00030213046C04748B94FF030084146ACE7F8
:10C8E000364805F07FFE23E73C6881E63368019413
:10C8F0000094D3F820800D220DF10F03382130462B
:10C90000C04738B938212E4805F06CFE20464FF05C
:10C91000FF314CE7336801940094D3F820800D2256
:10C920000DF10F033C213046C04738B93C21244863
:10C9300005F058FE20464FF0FF3102E733680194BE
:10C940000094D3F820800D220DF10F033A213046D8
:10C95000C04738B93A211A4805F044FE20464FF046
:10C96000FF310BE7326801940094D2F820800DF17A
:10C970000F03752268213046C04738B96821104836
:10C9800005F030FE20464FF0FF31B1E60D4805F0CE
:10C9900029FEA86800287FF4C1AE4FF0FF310320C4
:10C9A00001F054FBC0B204F0FBF918B1064805F0E1
:10C9B00019FEBDE6054805F015FEB9E644DE0300A4
:10C9C000DCDE0300C8DE03005CDE030098DE03004B
:10C9D00008B5FFF707FE00B1806808BD08B501F093
:10C9E0005DFCFBF705FCBDE8084001F0BBB900BFEA
:10C9F00008B501F053FCFBF76BFCBDE8084001F003
:10CA0000B1B900BF08B501F049FC0DF0D3FFBDE896
:10CA1000084001F0A7B900BF08B501F03FFC0EF0D7
:10CA2000DBFBBDE8084001F09DB900BF08B501F08F
:10CA300035FCFBF7EDFBBDE8084001F093B900BF02
:10CA400008B501F02BFC0EF0F3F9BDE8084001F049
:10CA500089B900BF08B501F021FCFAF745FEBDE831
:10CA6000084001F07FB900BF08B501F017FC0EF0D7
:10CA700033F9BDE8084001F075B900BF70B5049EF8
:10CA800096420C4628DB15466BB1002A00EB0201EA
:10CA900007DD2046A21811F8013D00F8013B904245
:10CAA000F9D1002070BD042A0FD0022A02D110F063
:10CAB000010306D001462A46204610F085FD0020DD
:10CAC00070BD02880A80184670BD10F00303F1D1D2
:10CAD00002680A60184670BD0846002110F099FDF2
