:020000040002F8
:10700000000004207D800300A5800300A78003000A
:10701000A9800300AB800300AD80030000000000E6
:10702000000000000000000000000000AF8003002E
:10703000B180030000000000B3800300B5800300AE
:10704000B7800300B78003001D7F0300E17E0300CB
:10705000F57E0300B78003005D6D0300B780030079
:10706000757B03007D7B0300857B0300B7800300F5
:10707000B7800300B7800300B7800300B780030028
:10708000B7800300B7800300B7800300B780030018
:10709000B7800300B7800300B7800300B780030008
:1070A000B7800300B78003008D7B0300957B03004E
:1070B000B7800300B780030000000000000000005C
:1070C000B7800300B7800300B7800300097F030087
:1070D000B7800300B7800300B7800300B7800300C8
:1070E000457F0300B7800300B78003000000000065
:1070F00000000000B780030000000000317F0300A3
:10710000000000000000000000000000000000007F
:10711000000000000000000000000000000000006F
:10712000000000000000000000000000000000005F
:10713000000000000000000000000000000000004F
:10714000000000000000000000000000000000003F
:10715000000000000000000000000000000000002F
:10716000000000000000000000000000000000001F
:10717000000000000000000000000000000000000F
:1071800000000000000000000000000000000000FF
:1071900000000000000000000000000000000000EF
:1071A00000000000000000000000000000000000DF
:1071B00000000000000000000000000000000000CF
:1071C00000000000000000000000000000000000BF
:1071D00000000000000000000000000000000000AF
:1071E000000000000000000000000000000000009F
:1071F000000000000000000000000000000000008F
:107200007CB0EE877CB0EE87FF00FF00FF00FF0040
:10721000FF00FF00FF00FF00FF00FF00FF00FF0076
:10722000FF00FF00FF00FF00FF00FF00FF00FF0066
:10723000FF00FF00FF00FF002DE9F04F0378202B37
:1072400083B00446894603D114F8013F202BFBD0BC
:107250002B2B08BF013494F800E0BEF12D0F00F095
:1072600086809FED577BBEF1300F8DED007B00F0E7
:107270008A80BEF1000F00F09D80002600274FF0AD
:10728000000ADFF84CB14FF000081CE013F04CFC92
:1072900006460F46284613F0E1FB32463B4613F004
:1072A00091FA524606460F465B46DDE90001B8F109
:1072B000000F03D013F062FDCDE9000114F801EFD7
:1072C000BEF1000F14D0AEF13005092D52465B46D9
:1072D00030463946DAD9B8F1000F18D1BEF12E0F79
:1072E00015D114F801EF4FF00108BEF1000FEAD1FB
:1072F00032463B46DDE9000113F016FC06460F4618
:10730000C9F800403046394603B0BDE8F08F0EF0B2
:10731000DF0EBEF1450F08D02378202B03D114F8DF
:10732000013F202BFBD0002B41D1DDE9002330466B
:10733000394613F0F9FB237806460F46002BDFD0C1
:107340004946601C0A2213F021FA21490246002016
:1073500013F04AFF02460B463046394613F0E4FB71
:1073600006460F463046394603B0BDE8F08F94F824
:1073700001E09FED157BBEF1300F8DED007B04F138
:1073800001047FF476AF637843F02003782B7FF419
:1073900074AF10224946204613F0F8F913F05EFB53
:1073A000DDE9002313F0C0FB06460F46AAE70026DE
:1073B000084FA7E7002600279AE700BFAFF3008039
:1073C000000000000000F03F000000000000F0BFDF
:1073D000000024400000F87F2DE9F84F16460023F6
:1073E000002204460D4613F011FE002840F09D8057
:1073F000002200232046294613F0FEFD28B130224A
:10740000002332707370BDE8F88F2046294611F0D2
:107410008DFE13F039FE7BA3D3E900238146294674
:10742000204613F0F3FD002800F08680B9F1000F2C
:10743000C0F2BE804A4600206F4913F0D5FE0246D6
:107440000B462046294613F099FC04460D4666A1DA
:10745000D1E9000101274FF0000822462B4613F026
:1074600063FB0022654B13F0ADF913F0F9FE002F1A
:10747000CC464FF0FF3AC1464FF0000840F38580FC
:10748000DFF888E15E4C0122AEF1700945F6F32584
:107490004FF02E0BA94208BFA0424FF0300309D392
:1074A000001B61EB0501A94208BFA04203F10103E3
:1074B000F6D2DBB2337050EA010306F1010409D1C0
:1074C000BA4210DACE4502F101020CD026467EE81F
:1074D0000245DFE7BA4204BF86F801B0B41CCE45CE
:1074E00002F10102F2D1B8F1000F0DD02246302195
:1074F00002F8011BC2F1010353442344002BF7DCC3
:107500002AEAEA7301331C44BCF1010F4CD0652315
:10751000BCF1000F2370C5BF2B236370611CA11C3D
:107520006046BDE8F84F0AF0CFBB05F100431D46A9
:107530002D23337001365BE72DA3D3E900232046CA
:10754000294613F081FD00287FF470AFB9F10E0FCA
:1075500009F101073DDDA9F10E0842460020264948
:1075600013F042FE02460B462046294613F006FC65
:107570000022224B13F026F913F072FE002FA9F11E
:107580000F0A4FF0010C3FF77BAF334630222E2419
:1075900003F8022B74707FEA090618D01E4403F822
:1075A000012BB342FBD16BE700232370BDE8F88FBA
:1075B000C9F100020020104913F016FE02460B46E6
:1075C0002046294613F0B0FA04460D463FE71E4612
:1075D00056E7C9F10E0200200749C84613F004FE21
:1075E0004FF0010939E700BF0000901EC4BCD6422D
:1075F00050EFE2D6E41A4B44000024400000E03F84
:1076000000407A108DEDB5A0F7C6B03E00BD030076
:1076100070B54FF0FF3006F0CDF904466FF07F40B3
:1076200006F0C8F90646204613F008FA00220C4B73
:1076300013F07AFA044630460D4613F0FFF906A31C
:10764000D3E9002313F09AFB02460B462046294655
:1076500013F0B8F870BD00BF0000E0DFFFFF6F431C
:107660000000F03D0000000008B50BF021FEDFED4A
:107670000C7A07EE100A67EE277A17EE900A13F0DD
:10768000FFF905A3D3E9002313F078FB13F0FCFC0A
:1076900008BD00BFAFF30080EA2E4454FB2119401F
:1076A0000000B4430000000008B50BF015FEDFED4C
:1076B0000C7A07EE100A67EE277A17EE900A13F09D
:1076C000DFF905A3D3E9002313F058FB13F0DCFC2A
:1076D00008BD00BFAFF30080EA2E4454FB211940DF
:1076E0000000B44300000000494A21F000439342E7
:1076F0002DE9704304460D464BDC464A93420E4644
:107700000EDC3FA3D3E9002313F05CF80022424BC8
:1077100013F09AFC00284CD020462946BDE870831F
:107720003E4A93423BDCB3F1804F42DD11F0F8F862
:107730002246804689462B462046294613F0F4F916
:107740000022354B13F03EF811F0AEFF02460B4617
:107750004046494613F036F802460B4600202E49B3
:1077600013F00CFB424604460D464B464046494644
:1077700013F028F802460B462046294613F022F85B
:1077800002F06AF8002EC9DC01F100431946BDE899
:10779000708302460B4613F015F8BDE8708311F0B4
:1077A000BFF802F059F818A3D3E9002313F00AF840
:1077B000E8E722462B462046294613F0B5F98046D5
:1077C00089462046294611F0ABF8002204460D46B2
:1077D000114B4046494612F0F5FF11F065FF0022BB
:1077E0000D4B12F0EFFF02460B464046494613F0A0
:1077F000C5FA22462B4612F0E5FF00F0C5FAC1E7B4
:107800009C7500883CE4377EEF39FAFE422EE63F55
:10781000FFFFEF7FFFFF2F3E0000F03F0000B04171
:107820002DE9F84FC44B21F000469E4204460D4618
:107830008A460EDDC14B9E4200F3AC8000F0A7806B
:10784000BAF1000F40F3EA809FA1D1E90001BDE841
:10785000F88FBB4B9E4200F3B580A3F1DE739E42CE
:1078600040F3A0804FF0FF3B22462B46204629469E
:1078700013F05AF902460B468046894613F054F934
:1078800093A3D3E9002306460F4613F04DF992A3C4
:10789000D3E9002312F096FF32463B4613F044F939
:1078A0008FA3D3E9002312F08DFF32463B4613F03D
:1078B0003BF98DA3D3E9002312F084FF32463B4607
:1078C00013F032F98AA3D3E9002312F07BFF32468A
:1078D0003B4613F029F988A3D3E9002312F072FF85
:1078E00042464B4613F020F985A3D3E90023804696
:1078F00089463046394613F017F983A3D3E90023AC
:1079000012F05EFF32463B4613F00EF980A3D3E936
:10791000002312F055FF32463B4613F005F97EA3D3
:10792000D3E9002312F04CFF32463B4613F0FCF83B
:107930007BA3D3E9002312F043FF32463B4613F00A
:10794000F3F8BBF1FF3F02460B466CD04046494678
:1079500012F038FF22462B4613F0E6F8794E7A4BA8
:107960004FEACB0B5E449B44DBE9002312F028FF77
:1079700022462B4612F024FF02460B46D6E90001B0
:1079800012F01EFFBAF1000F43DBBDE8F88F0028AC
:107990003FF456AF22462B462046294612F012FFEE
:1079A000BDE8F88F60A3D3E9002312F00BFF00229B
:1079B000664B13F049FB00283FF454AF204629469C
:1079C000BDE8F88F10F0ACFF614B9E4204460D46B7
:1079D00039DCA3F550239E425EDC02460B4612F0D2
:1079E000F1FE0022594B12F0EBFE002206460F4634
:1079F0004FF080432046294612F0E4FE02460B4633
:107A00003046394613F0BAF94FF0000B04460D46E4
:107A10002AE701F100431946BDE8F88F44A1D1E9F6
:107A20000001BDE8F88F4046494612F0CBFE2246E1
:107A30002B4613F079F802460B462046294612F0F1
:107A4000BFFEBDE8F88F434B9E421ADC0022424B3A
:107A500012F0B6FE002206460F463F4B204629464E
:107A600013F062F80022394B12F0ACFE02460B46CE
:107A70003046394613F082F94FF0020B04460D46AA
:107A8000F2E602460B460020344913F077F94FF036
:107A9000030B04460D46E7E600222C4B12F090FE45
:107AA000002206460F46294B2046294612F08AFE40
:107AB00002460B463046394613F060F94FF0010B91
:107AC00004460D46D0E600BF182D4454FB21F93F73
:107AD00011DA22E33AAD903FEB0D76244B7BA93FC0
:107AE000513DD0A0660DB13F6E204CC5CD45B73F8E
:107AF000FF8300922449C23F0D5555555555D53F3A
:107B00002F6C6A2C44B4A2BF9AFDDE522DDEAD3F2D
:107B10006D9A74AFF2B0B33F711623FEC671BC3FCD
:107B2000C4EB98999999C93F9C7500883CE4377ECD
:107B3000182D4454FB21F9BFFFFF0F440000F07FD4
:107B4000FFFFDB3F10BD030030BD03000000F03F2E
:107B5000FFFFF23FFF7F03400000F83F0000F0BF4F
:107B60002DE9F843C1F30A59A9F2FF35132D024656
:107B70000B460C4606468846074622DC002D50DBA5
:107B8000DFF8F09049FA05F901EA090E5EEA060607
:107B90001CD036A3D3E9002312F014FE00220023E8
:107BA00013F052FA48B1002C04DD4FF4801343FA6D
:107BB00005F5A84428EA0904002721463846BDE80F
:107BC000F883332D06DDB5F5806F3DD0104619469C
:107BD000BDE8F883A9F213494FF0FF3E2EFA09F9E8
:107BE00010EA090FF2D021A3D3E9002312F0EAFD35
:107BF0000022002313F028FA0028DED0002C09DD33
:107C0000142D2BD00127C5F1340507FA05F5AE195F
:107C100028BFB844444626EA090721463846BDE84D
:107C2000F88312A3D3E9002312F0CCFD0022002335
:107C300013F00AFA0028C0D0002C0BDB54EA060728
:107C400006D00027084CB8E712F0BCFDBDE8F88369
:107C50003C46B2E700274FF00044AEE704F10108CC
:107C6000D8E700BFAFF300800000F03F9C750088AC
:107C70003CE4377EFFFF0F002DE9F041C1F30A57C6
:107C8000A7F2FF35132D02460B460C4688460646E2
:107C90001CDC002D3FDB3A4F2F41864601EA070CE2
:107CA0005CEA0E0E17D034A3D3E9002312F08AFD4C
:107CB0000022002313F0C8F920B1002C3FDB28EA92
:107CC0000704002621463046BDE8F081332D06DD4D
:107CD000B5F5806F2FD010461946BDE8F081A7F2A8
:107CE00013474FF0FF3E2EFA07F73842F3D022A396
:107CF000D3E9002312F066FD0022002313F0A4F95B
:107D00000028DFD0002C20DB444626EA0706214667
:107D10003046BDE8F08118A3D3E9002312F052FDEC
:107D20000022002313F090F90028CBD0002C17DBA1
:107D300000263446C6E712F045FDBDE8F0814FF459
:107D4000801343FA05F5A844B9E7142D10D0012398
:107D5000C5F1340503FA05F5AE1928BF9844D3E7F9
:107D600024F00042074B324318BF1C460026A9E707
:107D700004F10108C8E700BF9C7500883CE4377E29
:107D8000FFFF0F000000F0BF2DE9F04FD84B9942E4
:107D900087B0804689460E4613DCD64B21F000445E
:107DA0009C4218DD0022D44B13F026F9002879D02C
:107DB000002200230020D14912F0E0FF07B0BDE807
:107DC000F08FCF4B99422FDD42464B4612F0FAFC22
:107DD00007B0BDE8F08FCB4B9C4270DDCA4B1E4410
:107DE0009E427ED80022C94B4046494612F0EAFC2A
:107DF0004FEA215AAAF2FF3ABAF1000F04460D46A3
:107E00000E4640F3DE8142464B4612F0D9FC024654
:107E10000B460020BD4912F0D3FC22462B4612F03F
:107E2000ADFFCDE902010BE0B94B9E42DADD9FEDDB
:107E30009A7B8DED027B4FEA265A4446AAF2FF3A1E
:107E4000B44BC6F313069E4246F07F5500F3E7801D
:107E500045F44015204629460022AC4B12F0B0FCF8
:107E6000002204460D46AC4B12F05EFE22462B4625
:107E700012F05AFEA046CDE90401A946CDE9000161
:107E8000002E3AD1002200232046294613F0B4F8F0
:107E9000002800F0CE80BAF1000F40F0748100207D
:107EA000002195E742464B464046314612F088FC99
:107EB00002460B4612F062FF07B0BDE8F08F0022C9
:107EC000964B12F07FFC0022002313F0BDF800282F
:107ED00000F0CC80924B9C4200F3C880404649465B
:107EE00076E700228C4B12F01FFE42464B4612F002
:107EF0001BFECDE900014FF0000A00224FF0804345
:107F00004046494612F05EFC02460B464046494652
:107F100012F034FF02460B4606460F4612F004FEEE
:107F20005FA3D3E9002304460D4612F0FDFD5EA3D6
:107F3000D3E9002312F046FC22462B4612F0F4FD52
:107F40005BA3D3E9002312F03DFC22462B4612F03E
:107F5000EBFD59A3D3E9002312F034FC22462B4653
:107F600012F0E2FD56A3D3E9002312F02BFC2246C7
:107F70002B4612F0D9FD54A3D3E9002312F022FCC2
:107F800022462B4612F0D0FD51A3D3E9002312F074
:107F900019FC22462B4612F0C7FD04460D46BAF1E5
:107FA000000F00F0BF80504612F058FD4AA3D3E9FD
:107FB000002382468B4612F0B7FDDDE90023CDE9B0
:107FC00004012046294612F0FDFB32463B4612F0E2
:107FD000ABFD43A3D3E9002304460D465046594662
:107FE00012F0A2FDDDE9022312F0ECFB02460B4683
:107FF0002046294612F0E6FB02460B46DDE9000169
:1080000012F0DEFB42464B4612F0DAFB02460B460C
:10801000DDE9040112F0D4FB07B0BDE8F08F45F4B0
:108020000015C6F5801620462946B6100AF1010A49
:1080300012E72DA3D3E900232046294612F074FD50
:1080400002460B460020314912F0BAFBDDE9042359
:1080500012F06AFD06460F46BAF1000F73D10246D0
:108060000B462046294612F0ABFBB1E642464B4692
:108070004046494612F058FD0022274B12F054FDAD
:1080800002460B464046494612F09AFB07B0BDE84F
:10809000F08F00BFAFF30080000000000000000080
:1080A00044523EDF12F1C23F9FC678D0099AC33FC7
:1080B000DE03CB966446C73FAF788E1DC571CC3FBB
:1080C000599322942449D23F04FA97999999D93F18
:1080D000935555555555E53F0000E0FE422EE63FCD
:1080E000763C7935EF39EA3D555555555555E53FBF
:1080F0007982DA3FFFFFEF3F0000F0BF000050C37E
:10810000FFFFEF7FFFFF1F3E3C412D400000F03F8F
:10811000FFFF3F439DA006000000E03F00005043EA
:10812000FFFF8F3CDDE9004522462B4612F04AFB5B
:1081300032463B4612F0F8FC02460B4620462946E2
:1081400012F03EFB9CE7504612F088FC23A3D3E9D3
:10815000002382468B4612F0E7FC22A3D3E90023DA
:10816000804689465046594612F0DEFCDDE902237E
:1081700012F028FB02460B463046394612F020FB2F
:1081800022462B46DCE7504612F068FC15A3D3E9E3
:10819000002306460F4612F0C7FCDDE9022312F069
:1081A00011FB0EA3D3E9002304460D4630463946A1
:1081B00012F0BAFC02460B462046294612F002FB9A
:1081C00006E60022044B12F0FBFA02460B4640463C
:1081D000494612F0F5FA20E60000F03F0000E0FE0C
:1081E000422EE63F763C7935EF39EA3D000000004B
:1081F00008B510F01BFF04A3D3E9002312F0BEFD65
:1082000008BD00BFAFF30080EF39FAFE422EE63F13
:108210002DE9F043DFF8B4808BB004460D4601F041
:10822000F3F898F90030013306460F462BD022466A
:108230002B462046294612F011FF814618BB2046E6
:10824000294610F06DFB1FA3D3E9002312F0FCFEBA
:10825000C8B1194A98F90030CDF820900321CDE932
:108260000445CDE902458DE806008BB9134B4FF06C
:108270006042CDE90623684612F0A4F870B1089B6D
:108280009BB9DDE90667304639460BB0BDE8F0839F
:108290000B490020022BCDE90601ECD112F01EFAA9
:1082A00022230360089B002BEBD012F017FA089BE7
:1082B0000360E6E7AFF30080B0CE0300FFFFEF47B7
:1082C0000000F07F7DF8B98FCE3386400382002016
:1082D0002DE9F043DFF8E4808BB004460D4601F051
:1082E00043F998F90030013306460F4633D0204653
:1082F000294612F061F870B32CA3D3E9002320467D
:10830000294612F0A1FE814650BB2AA3D3E90023DF
:108310002046294612F07AFEE8B198F90030204A4A
:10832000CDF82090002600270421022BCDE904453A
:10833000CDE90245CDE906678DE8060029D06846FB
:1083400012F040F828B3089B1BB112F0C7F9089B44
:108350000360DDE90667304639460BB0BDE8F083BF
:108360000F4A98F90030019203210022CDE904451B
:10837000CDE90245009108922BB90A4B4FF06042BB
:10838000CDE90623DBE708490020022BCDE90601F1
:10839000D5D112F0A3F922230360D4E7AFF3008014
:1083A000B8CE0300FFFFEF470000F07FEF39FAFE81
:1083B000422E864051302DD5104987C003820020BF
:1083C0002DE9F04FDFF80C938DB006460F461446AA
:1083D0001D4601F0C5FC99F90080B8F1FF3FCDE9D9
:1083E000000136D022462B462046294612F036FEA2
:1083F000834670BB32463B463046394612F02EFE6D
:108400008246002840F0A2803046394600220023F0
:1084100012F0F2FD10B3002200232046294612F08C
:10842000EBFD834600286AD09FEDA17B0122A44B7F
:10843000CDF828A00292CDE90467CDE906458DED7F
:10844000087B0393B8F1000F45D09FED9B7B8DED2A
:10845000007BDDE900010DB0BDE8F08FDDE9000132
:1084600011F0AAFF8046002800F08D804FF0000A2E
:108470004FF0000BDDE9000152465B4612F0BCFDF7
:108480000028E6D03046394611F096FF0028E0D0AB
:108490002046294611F090FF0028DAD099F90030E3
:1084A000874A039204210022022BCDE90467CDE91B
:1084B0000645CDE908AB02910A9203D002A811F05B
:1084C00081FF68B912F00AF92223036008E09FEDEA
:1084D000787B8DED087B02A811F074FF002830D066
:1084E0000A9B1BB112F0FAF80A9B03609DED087B12
:1084F0008DED007BDDE900010DB0BDE8F08F204679
:10850000294611F059FF0028A3D00022002320465D
:10851000294612F07BFD00289BD099F90030684A6B
:10852000CDF828B00121CDE90467CDE906450291D7
:108530000392002BCBD063490020022BCDE9080128
:10854000C9D112F0CBF821230360C9E70022002330
:108550002046294612F050FD00283FF47AAF5A4BCE
:108560005749CDF828B000220120B8F1020FCDE91B
:1085700004670290CDE90645CDE908230391AAD10D
:10858000CDE9002365E73046394611F015FF002894
:108590003FF46CAF2046294611F00EFF00283FF44F
:1085A00065AFDDE900231046194612F057FD00289B
:1085B0005FD1032399F900800293414B0A90CDE9E2
:1085C0000467CDE906450393B8F1000F2BD1DFF81E
:1085D00008B14FF0604A0022002330463946CDE909
:1085E00008AB12F013FD00283FF468AF0022374BB0
:1085F0002046294612F098FA04460D4611F0EAFE8C
:1086000002460B462046294612F0F6FC70BB304B62
:1086100099F900804FF06042CDE90823B8F1020FCC
:108620007FF44CAF4EE7DFF8B4B04FF0000A002201
:10863000002330463946CDE908AB12F0E7FC0028AC
:10864000ECD00022214B2046294612F06DFA044658
:108650000D4611F0BFFE02460B462046294612F099
:10866000CBFC18B9174B0022CDE9082399F90080FB
:10867000D4E799F90090124BCDF828800122CDE97A
:108680000467CDE9064502920393B9F1000F3FF468
:108690001EAF002200231046194612F06FFBB9F1FD
:1086A000020FCDE908013FF44CAF14E7AFF30080AF
:1086B0000000000000000000000000000000F03F8B
:1086C000D0CE03000000F0FF0000F03F0000E03FCC
:1086D000FFFFEFC703820020FFFFEF470000F07F9E
:1086E0002DE9F84FC44E21F00043B34204460D4635
:1086F0000DDD03F1404303F58013034340F0B980DF
:10870000002940F3408100200021BDE8F88FBB4ED6
:10871000B34240F3A6800029C0F2788102460B469E
:108720000020B74912F04CF80022B64B12F0FCF9C9
:1087300004460D4610F0B8FF95A3D3E900238946FF
:1087400080462946204612F0EFF993A3D3E900238F
:1087500012F038F822462B4612F0E6F990A3D3E93E
:10876000002312F02DF822462B4612F0DDF98EA3DD
:10877000D3E9002312F026F822462B4612F0D4F952
:108780008BA3D3E9002312F01BF822462B4612F0EC
:10879000CBF989A3D3E9002312F014F822462B4623
:1087A00012F0C2F986A3D3E9002382468B46204605
:1087B000294612F0B9F984A3D3E9002312F000F896
:1087C00022462B4612F0B0F981A3D3E9002311F021
:1087D000F9FF22462B4612F0A7F97FA3D3E9002325
:1087E00011F0EEFF22462B4612F09EF90022844B38
:1087F00011F0E8FF02460B465046594612F0BEFA09
:1088000042464B4612F090F9002682468B4632468D
:108810004B463046494612F087F902460B46204641
:10882000294611F0CDFF324604460D464B464046E0
:10883000494611F0C7FF02460B462046294612F072
:108840009DFA02460B465046594611F0BBFF324690
:108850004B4611F0B7FF02460B4611F0B3FFBDE8DF
:10886000F88F694A93420EDC5DA1D1E90001BDE8B1
:10887000F88F02460B4611F0A3FF02460B4612F09A
:108880007DFABDE8F88F02460B4612F04DF940A381
:10889000D3E9002306460F4612F046F93EA3D3E97A
:1088A000002311F08FFF32463B4612F03DF93CA306
:1088B000D3E9002311F084FF32463B4612F034F92D
:1088C00039A3D3E9002311F07DFF32463B4612F075
:1088D0002BF937A3D3E9002311F072FF32463B4650
:1088E00012F022F934A3D3E9002311F06BFF3246D2
:1088F0003B4612F019F932A3D3E90023804689469A
:108900003046394612F010F92FA3D3E9002311F0B5
:1089100057FF32463B4612F007F92DA3D3E9002357
:1089200011F050FF32463B4612F0FEF82AA3D3E97D
:10893000002311F045FF32463B4612F0F5F80022C5
:108940002F4B11F03FFF02460B464046494612F0BE
:1089500015FA22462B4612F0E7F802460B4622A1F2
:10896000D1E9000111F02CFF02460B4620462946B2
:1089700011F026FF02460B4619A1D1E9000111F0C2
:108980001FFFBDE8F88F1AA1D1E90001BDE8F88FFB
:1089900009F7FD0DE13D023F88B20175E0EF493F67
:1089A0003B8F68B52882A43F5544880E55C1C93F06
:1089B0007D6FEB0312D6D43F555555555555C53FE0
:1089C00082922EB1C5B8B33F59018D1B6C06E63FAC
:1089D000C88A599CE52A00404B2D8A1C273A03403F
:1089E000182D4454FB21F93F075C143326A6913C13
:1089F000182D4454FB210940FFFFEF3FFFFFDF3FED
:108A00000000F03F0000E03F0000603C00225C4BB3
:108A100011F0D8FE00225B4B12F086F840A3D3E998
:108A2000002304460D4612F07FF83FA3D3E900234C
:108A300011F0C8FE22462B4612F076F83CA3D3E98B
:108A4000002311F0BDFE22462B4612F06DF83AA32A
:108A5000D3E9002311F0B6FE22462B4612F064F84B
:108A600037A3D3E9002311F0ABFE22462B4612F0C8
:108A70005BF835A3D3E9002311F0A4FE22462B4670
:108A800012F052F8804689462046294610F00CFE26
:108A90002FA3D3E9002306460F462046294612F0AD
:108AA00043F82DA3D3E9002311F08AFE22462B467A
:108AB00012F03AF82AA3D3E9002311F083FE2246EC
:108AC0002B4612F031F828A3D3E9002311F078FEE9
:108AD00022462B4612F028F80022294B11F072FE94
:108AE00002460B464046494612F048F932463B469C
:108AF00012F01AF81EA3D3E9002311F061FE3246EA
:108B00003B4611F05FFE02460B4611F05BFE02464B
:108B10000B4619A1D1E9000111F052FEBDE8F88F12
:108B200009F7FD0DE13D023F88B20175E0EF493FD5
:108B30003B8F68B52882A43F5544880E55C1C93F74
:108B40007D6FEB0312D6D43F555555555555C53F4E
:108B500082922EB1C5B8B33F59018D1B6C06E63F1A
:108B6000C88A599CE52A00404B2D8A1C273A0340AD
:108B7000075C143326A6913C182D4454FB21094070
:108B80000000F03F0000E03F434A91422DE9F843E6
:108B900004460D4639DD414A914209DD02F1795220
:108BA000914240DD02460B4611F00CFEBDE8F88311
:108BB00001F1404202F58012024330D0B1F1804F02
:108BC0003ADC0022364B11F0FBFD02460B46044610
:108BD0000D4611F0F7FD224606460F462B4620466D
:108BE000294611F0A1FF02460B463046394611F0E6
:108BF000E9FD10F059FD0B4602462946204611F0CA
:108C0000E1FDBDE8F843FFF7BFB802460B4611F09F
:108C1000D7FD02460B4612F0B1F8BDE8F8830020FC
:108C20000021BDE8F88300F017FE19A3D3E9002363
:108C300011F0C8FDBDE8F88302460B4611F074FF41
:108C40000022174B11F0BCFD10F02EFD224680468D
:108C500089462B462046294611F0B4FD4246064679
:108C60000F464B462046294611F0ACFD02460B4606
:108C700000200B4912F082F80B4602463946304676
:108C800011F09EFDBDE8F84300F0E6BDAFF30080B3
:108C9000EF39FAFE422EE63FFFFFEF3FFFFFAF4105
:108CA0000000F03F000000002DE9F047BE4B21F02E
:108CB0000048984584B004460D4612DD08F140484E
:108CC00008F58018034658EA030321D002460B46F4
:108CD00011F076FD02460B4612F050F804B0BDE8E4
:108CE000F087B24B98458A4629DCB8F1795F80F26B
:108CF000658191A3D3E9002311F064FD0022AC4B00
:108D000012F0A2F9D8B12046294604B0BDE8F08798
:108D10008BA3D3E9002311F007FF8BA3D3E9002332
:108D200006460F462046294611F0FEFE02460B4637
:108D30003046394611F046FD04B0BDE8F0872046C4
:108D400029460FF0EDFD02460B460020984911F030
:108D500037FD0022974B11F0E7FE7DA3D3E90023F6
:108D600004460D4611F0E0FE7BA3D3E9002311F089
:108D700029FD22462B4611F0D7FE79A3D3E9002323
:108D800011F01EFD22462B4611F0CEFE76A3D3E94C
:108D9000002311F017FD22462B4611F0C5FE74A3E7
:108DA000D3E9002311F00CFD22462B4611F0BCFE46
:108DB00071A3D3E9002311F005FD22462B4611F0E3
:108DC000B3FE6FA3D3E90023CDE900012046294675
:108DD00011F0AAFE6CA3D3E9002311F0F1FC2246A6
:108DE0002B4611F0A1FE6AA3D3E9002311F0EAFC9F
:108DF00022462B4611F098FE67A3D3E9002311F019
:108E0000DFFC22462B4611F08FFE694B002211F049
:108E1000D9FCCDE902012046294610F045FC664BFD
:108E2000984506460F4666DCDDE90223DDE90001D0
:108E300011F0A4FF3246CDE900013B4630463946E9
:108E400011F0C0FC02460B46DDE9000111F06CFE9A
:108E50004FF00008CDE9000142463B464046394606
:108E600011F062FE02460B462046294611F0A8FC8E
:108E7000424604460D463B463046394611F0A2FCB8
:108E800002460B462046294611F078FF02460B4663
:108E900011F098FC02460B462BA1D1E9000111F01C
:108EA0008FFC02460B46DDE9000111F089FC4246C9
:108EB00004460D463B464046394611F083FC0246C7
:108EC0000B4637A1D1E9000111F07AFC02460B46AE
:108ED0002046294611F074FC02460B4630A1D1E928
:108EE000000111F06DFCBAF1000F3FF7F7AE01F190
:108EF00000431946F2E6DDE90223DDE9000111F045
:108F00003DFF32463B4611F00FFE32463B4611F024
:108F100059FC02460B4611F055FC0BA3D3E9002384
:108F200011F04EFC02460B4605A1D1E9000111F0FB
:108F300047FCD8E7AFF300809C7500883CE4377E9F
:108F4000182D4454FB21F93F075C143326A6913CAD
:108F500009F7FD0DE13D023F88B20175E0EF493FA1
:108F60003B8F68B52882A43F5544880E55C1C93F40
:108F70007D6FEB0312D6D43F555555555555C53F1A
:108F800082922EB1C5B8B33F59018D1B6C06E63FE6
:108F9000C88A599CE52A00404B2D8A1C273A034079
:108FA000182D4454FB21E93FFFFFEF3FFFFFDF3F58
:108FB0000000F03F0000E03F3233EF3F02460B4637
:108FC00011F0B2FD37A3D3E9002306460F4611F096
:108FD000ABFD36A3D3E9002311F0F4FB32463B4648
:108FE00011F0A2FD33A3D3E9002311F0E9FB3246CF
:108FF0003B4611F099FD31A3D3E9002311F0E2FBC8
:1090000032463B4611F090FD2EA3D3E9002311F028
:10901000D7FB32463B4611F087FD2CA3D3E9002352
:1090200011F0D0FB32463B4611F07EFD29A3D3E977
:109030000023804689463046394611F075FD27A346
:10904000D3E9002311F0BCFB32463B4611F06CFD26
:1090500024A3D3E9002311F0B5FB32463B4611F0BF
:1090600063FD22A3D3E9002311F0AAFB32463B465D
:1090700011F05AFD00220A4B11F0A4FB02460B46E8
:109080004046494611F07AFE22462B4611F04CFD2F
:1090900022462B4611F096FB04B0BDE8F08700BFD6
:1090A0000000F03F09F7FD0DE13D023F88B2017578
:1090B000E0EF493F3B8F68B52882A43F5544880EB6
:1090C00055C1C93F7D6FEB0312D6D43F5555555559
:1090D0005555C53F82922EB1C5B8B33F59018D1B7E
:1090E0006C06E63FC88A599CE52A00404B2D8A1C35
:1090F000273A0340000000002DE9F84F1D46534277
:10910000134325F0004ADFF8E0E14AEAD3737345E0
:10911000144606460F4647D8C0F1000848EA000842
:1091200021F0004343EAD878F0458B463CD805F15E
:10913000404808F5801858EA020850D04FEAA57850
:1091400008F0020848EAD17850EA030134D052EA24
:109150000A023CD0F24557D0734538D0A3EB0A033E
:109160001B153C2B42DC002D70DB22462B46304683
:10917000394611F003FE0FF0D3FBFEF751FBB8F1B7
:10918000010F5FD0B8F1020F4ED0B8F1000F62D0DE
:1091900043A3D3E9002311F013FB43A3D3E9002336
:1091A00011F00EFBBDE8F88F32463B4620462946BB
:1091B00011F008FBBDE8F88FB8F1020F1AD0B8F132
:1091C000030F10D13AA1D1E90001BDE8F88FBBF13E
:1091D000000F14DB38A1D1E90001BDE8F88FBDE82C
:1091E000F84FFEF71DBB3946BDE8F88F32A1D1E933
:1091F0000001C4E72CA1D1E90001BDE8F88F30A13E
:10920000D1E90001BDE8F88F534526D0B8F1020F2F
:10921000F0D0B8F1030FD5D0B8F1010F4FF0000036
:1092200029D00021BDE8F88F1DA3D3E9002311F058
:10923000C7FA02460B461CA1D1E9000111F0C0FAA1
:10924000BDE8F88F01F10041BDE8F88F3C338CDABE
:109250000020002193E7BDE8F88FB8F1020F18D085
:10926000B8F1030F10D0B8F1010F08D016A1D1E961
:109270000001BDE8F88F4FF00041BDE8F88F14A160
:10928000D1E90001BDE8F88F13A1D1E90001BDE8E3
:10929000F88F13A1D1E90001BDE8F88FAFF300808A
:1092A000075C143326A6A13C182D4454FB21094029
:1092B000182D4454FB2109C0182D4454FB21F93FBB
:1092C000182D4454FB21F9BF182D4454FB21E93FCC
:1092D000182D4454FB21E9BFD221337F7CD902C031
:1092E000D221337F7CD902400000F07F00000000D3
:1092F00043422DE9F047034321F000463E4A46EA47
:10930000D373934204460D4613D896423DD03B4B4F
:109310009E428A4617DC36A3D3E9002311F052FAA5
:109320000022002311F090FEA8B320462946BDE894
:10933000F08702460B4611F043FA02460B4611F045
:109340001DFDBDE8F0872E4B9E42354624DD334699
:109350000246314611F036FA224606460F462B46A3
:109360000020254911F02CFA02460B4630463946BA
:1093700011F004FDFEF708FD0022224B11F0D4FB92
:10938000BAF1000F2FDBBDE8F0870022002311F0B7
:10939000F5FCBDE8F087354622462B462046294697
:1093A00011F010FA22462B4606460F4611F0BCFB80
:1093B0002246804689462B4600200F4911F000FACC
:1093C00002460B464046494611F0D8FC32463B4621
:1093D00011F0F8F9FEF7D8FC00220A4B11F0A4FBBB
:1093E000BAF1000FCFDA01F100431946BDE8F0876A
:1093F0009C7500883CE4377E0000F03FFFFF2F3E65
:10940000FFFFDF3F0000E03F2DE9F8434E4B21F026
:1094100000449C4206460F461BDC4C4B9C4222DD1E
:109420004B4B9C4263DD4B4B9C427BDD4A4B9C4249
:1094300046DD01339C4240D041A3D3E900231046CE
:10944000194611F071FB06460F4630463946BDE815
:10945000F88302460B4611F067FB06460F4630467E
:109460003946BDE8F8830FF05BFA02F0B1FC002248
:109470003A4B8046894611F0A5F9B4F1725F064671
:109480000F46ECDB42464B464046494611F04CFB4A
:1094900032463B4604460D463046394611F092F9B5
:1094A00002460B462046294611F068FC00222B4B51
:1094B00011F088F906460F46D1E7294B9842BBD8F0
:1094C000304639460FF02CFA0022264B11F02CFBC7
:1094D00000F04AF8002204460D46224B11F024FB0E
:1094E00022462B4611F020FB06460F46B7E70FF049
:1094F00017FA00F039F800221A4B06460F4611F011
:1095000013FB32463B4604460D460020154911F038
:1095100035FC02460B462046294611F053F9064613
:109520000F469CE70FF0FCF900F01EF800220D4BEF
:1095300011F0FAFA06460F4691E700BFAFF300803C
:109540009C7500883CE4377EFFFFEF7F422ED63FBC
:10955000FFFF3540412E8640CD3386400000F03F6E
:109560007DF8B98F0000E03F2DE9F04FB04E21F0BB
:109570000042B24283B004460D464FEAD1770DD97E
:10958000AC4EB24225D9C1F31303034340F0EC8043
:109590000FB10020002103B0BDE8F08FA64B9A4226
:1095A00000F2CB80A54B9A4200F2DC808AA3D3E97B
:1095B000002311F007F90022A14B11F045FD00280E
:1095C00000F006812046294600229D4B11F0FAF852
:1095D000E1E783A3D3E9002311F036FD002840F032
:1095E000C88081A3D3E900232046294611F00EFD4F
:1095F0000028CED1934E7EA3D3E9002306EBC70605
:109600002046294611F090FAD6E9002311F0DAF845
:1096100011F03AFD064611F021FA77A3D3E90023B1
:109620008046894611F080FA02460B4620462946BC
:1096300011F0C6F872A3D3E90023CDE9000140463A
:10964000494611F071FA82468B4652465B46DDE987
:10965000000111F0B5F804460D4622462B4620467F
:10966000294611F061FA68A3D3E9002380468946B0
:1096700011F05AFA66A3D3E9002311F0A1F842468B
:109680004B4611F051FA64A3D3E9002311F09AF884
:1096900042464B4611F048FA61A3D3E9002311F08A
:1096A0008FF842464B4611F03FFA5FA3D3E90023FF
:1096B00011F088F842464B4611F036FA02460B4646
:1096C0002046294611F07CF880468946002E58D065
:1096D0002046294642464B4611F026FA42460446A9
:1096E0000D464B4600204FF0804111F069F80246CC
:1096F0000B462046294611F041FB02460B465046D8
:10970000594611F05DF8DDE9002311F059F80B46D8
:1097100002464B49002011F053F86FF47F739E42CC
:1097200051DA06F57A7601EB065100224FF0B87354
:1097300011F0FAF903B0BDE8F08F434B9A423FF6BF
:1097400059AF424BFC002344D3E9002311F038F811
:109750003F4BC7F101062344CDE90001D3E900AB3B
:10976000F61B72E7002678E702460B4611F02AF84E
:1097700011E719A3D3E900231046194611F0D4F9D3
:1097800009E702460B462046294611F0CDF9002292
:1097900006460F464FF080434046494611F010F808
:1097A00002460B463046394611F0E8FA22462B466F
:1097B00011F006F802460B460020214911F000F88E
:1097C00003B0BDE8F08F01EB065103B0BDE8F08FA8
:1097D000064642E7AFF300809C7500883CE4377E84
:1097E000EF39FAFE422E864051302DD5104987C000
:1097F000FE822B654715F73F0000E0FE422EE63F54
:10980000763C7935EF39EA3DD0A4BE726937663EC1
:10981000F16BD2C541BDBB3E2CDE25AF6A56113F70
:1098200093BDBE166CC1663F3E5555555555C53F57
:10983000412E8640FFFFEF7F422ED63FFFFF2F3E97
:109840000000F03F50BD0300B1A2F03F60BD030037
:1098500070BD0300000000002DE9F04FB1F5801F3E
:1098600085B006460F460B465ADA024621F0004400
:10987000224300F0F8800029C0F27A810022D64B02
:1098800011F052F9D54A0B46934206460F466FF047
:10989000350C4ADCC3F3130505F5152E0EF6647E70
:1098A0000EF4801E8EF07F5282F440121C1542EAA4
:1098B0000507A4F2FF3464440022C94B3046394600
:1098C00004EB1E5410F07CFFAB1CC3F31303022BFC
:1098D00082468B464FF0000230DC002311F08CFBF7
:1098E000002800F0C980002C00F04B81204611F0C8
:1098F000B5F8A5A3D3E9002306460F4611F014F9E5
:10990000A3A3D3E9002304460D463046394611F09F
:109910000BF902460B462046294610F053FF0AE099
:10992000AE4A93424FF0000CB4DD32463B4630461F
:10993000394610F047FF05B0BDE8F08F4FF0804387
:1099400010F040FF02460B465046594611F016FAF9
:10995000064620460F4611F081F83246CDE9000157
:109960003B4630463946CDE9026711F0DDF8024644
:109970000B468046894611F0D7F887A3D3E9002328
:1099800006460F4611F0D0F885A3D3E9002310F066
:1099900019FF32463B4611F0C7F883A3D3E90023F1
:1099A00010F010FF32463B4611F0BEF880A3D3E919
:1099B000002310F007FF42464B4611F0B5F87EA396
:1099C000D3E90023804689463046394611F0ACF889
:1099D0007BA3D3E9002310F0F5FE32463B4611F09D
:1099E000A3F879A3D3E9002310F0ECFE32463B46FE
:1099F00011F09AF80B4602464946404610F0E2FE46
:109A0000A5F5C223C5F5D725A3F27A4351351D43E9
:109A1000002D8046894656DD0022724B504659463D
:109A200011F082F852465B4611F07EF806460F466A
:109A3000002C68D132463B464046494610F0C2FEF3
:109A4000DDE9022311F070F802460B463046394634
:109A500010F0B6FE02460B465046594610F0B0FED6
:109A600005B0BDE8F08F0022002300205E4911F010
:109A700085F905B0BDE8F08F55A3D3E90023504622
:109A8000594611F051F802460B460020554910F096
:109A900097FE524606460F465B465046594611F021
:109AA00043F802460B463046394611F03DF806466B
:109AB0000F46002C40F09A8002460B46504659460D
:109AC00010F07EFE37E7002C00F0A4802EA3D3E92F
:109AD0000023DDE9000111F027F842464B46044619
:109AE0000D465046594610F06BFEDDE9022311F099
:109AF0001BF827A3D3E9002306460F46DDE9000142
:109B000011F012F821E020A3D3E90023DDE90001E0
:109B100011F00AF832463B4604460D464046494697
:109B200010F050FEDDE9022310F0FEFF18A3D3E988
:109B3000002380468946DDE9000110F0F5FF02466A
:109B40000B464046494610F03DFE02460B46304665
:109B5000394610F035FE52465B4610F031FE0246A3
:109B60000B462046294610F02BFE05B0BDE8F08FCD
:109B700002460B4610F024FE0022002311F0FEF8EE
:109B8000D9E600200021D6E60000E0FE422EE63FA6
:109B9000763C7935EF39EA3D44523EDF12F1C23F5F
:109BA000DE03CB966446C73F599322942449D23FA3
:109BB000935555555555E53F9FC678D0099AC33FF3
:109BC000AF788E1DC571CC3F04FA97999999D93F0A
:109BD000555555555555D53F00005043FFFFEF7F74
:109BE0000000F03F0000E03F000050C3204610F0AE
:109BF00035FF0FA3D3E900238046894610F094FF78
:109C00000DA3D3E9002304460D464046494610F013
:109C10008BFF9AE702460B465046594610F0D0FD9E
:109C2000DDE9022310F080FF14E700BFAFF30080EE
:109C30000000E0FE422EE63F763C7935EF39EA3D02
:109C4000B1F5801F2DE9F84304460D460B461ADA9C
:109C5000024621F00046324359D000295FDB002242
:109C60003B4B10F061FF3B4A0D462B4693420446A6
:109C70006FF035010CDD22462B462046294610F0B8
:109C8000A1FDBDE8F883334A93424FF00001F2DCB6
:109C90001815A0F2FF3008444FEAD0794844C3F3C6
:109CA000130810F0DBFEC9F57F73033348EA035550
:109CB00006460F4620462946FFF7CEFD1EA3D3E9F0
:109CC0000023804689463046394610F02DFF1CA3FC
:109CD000D3E9002304460D464046494610F024FFD0
:109CE00002460B462046294610F06CFD16A3D3E928
:109CF000002304460D463046394610F015FF024653
:109D00000B462046294610F05DFDBDE8F883002291
:109D100000230020104911F031F8BDE8F883024615
:109D20000B4610F04DFD0022002311F027F8BDE88E
:109D3000F88300BFAFF30080362BF111F3FE593DDD
:109D40000EE526157BCBDB3F00609F501344D33FCD
:109D500000005043FFFFEF7F000050C300000000F1
:109D60002DE9F04F23F0004757EA020493B037D0B3
:109D7000674C21F00046A64283460D4629DC9A46F0
:109D8000964625D0A74224DC614CA74279D0002D0D
:109D900080468946CDE9002377DB0024BEF1000F21
:109DA0002CD15B4B9F4200F08B805A4B9F4261D07D
:109DB000BAF1804F00F0C383574B9A451ED1002D56
:109DC0001CDB4046494613B0BDE8F04F0FF06CBCB9
:109DD00058B106F1404606F5801656EA0B0306D147
:109DE0004C49002013B0BDE8F08FB742CCDD4B48A2
:109DF00013B0BDE8F04F10F0E7BA002440464946E2
:109E00000EF08EFDBBF1000F19D126B1414B25F0AC
:109E100040429A4213D1BAF1000FC0F2CA83002D1A
:109E2000E0DA06F1404606F5801656EA040300F033
:109E3000A584012CD6D101F100431946D2E7ED0FDC
:109E4000013D54EA05034ED0354B9F426EDD03F1D0
:109E500004739F4240F3FE83324B9E424EDDBAF1C3
:109E6000000F4EDD28A3D3E900231046194610F059
:109E70005BFEB7E7BAF1000FC0F252844046494694
:109E8000B0E7BEF1000F82D0A3E7274B9F4228DC4A
:109E9000A3F154739F4280DD3B15A3F2FF33142BD3
:109EA00040F35484C3F134032EFA03F202FA03F3AD
:109EB0009E457FF472AF02F00102C2F102046DE729
:109EC00006F1404303F5801353EA0B0388D0154B8A
:109ED0009E4240F33B83BAF1000F12DBDDE9000143
:109EE00080E702245AE742464B461046194610F0D6
:109EF00067FC02460B4610F041FF73E7BAF1000F12
:109F0000B0DB002000216DE79C7500883CE4377EC3
:109F10000000F07F0000F03F0000E03F84C4030039
:109F20000000E041FFFFEF3FFFFF3F43B6F5801F1A
:109F30004FF0000205DAD84B10F0F6FD6FF0340256
:109F40000E463315D54FC6F31306A3F2FF33134461
:109F500046F07F5ABE421A460D934AF4401A40F327
:109F60002F83CF4B9E4240F30D849FEDB57B8DED4B
:109F7000087B8DED0E7B9FEDB47B13468DED067B4C
:109F800001330D93AAF5801A0027DDE90623514617
:109F9000CDE90A0110F014FCDDE90623804689466C
:109FA000DDE90A0110F00EFC02460B460020BD4917
:109FB00010F0E4FE0A460146CDE910121346494668
:109FC0000246404610F0B0FD4FEA6A0343F00053EA
:109FD0008C46834603F50023CDE904BCDA468B4664
:109FE000D9190023CDE902AB0293DDE902AB0020D1
:109FF00006460F4602460B465046594610F094FD61
:10A0000002460B464046494610F0DAFBDDE90623DE
:10A01000804689463046394610F0D2FB02460B4650
:10A02000DDE90A0110F0CCFB52465B4610F07CFDE6
:10A0300002460B464046494610F0C2FBDDE91023BC
:10A0400010F072FDDDE90467CDE9060132463B46BA
:10A050003046394610F068FD7DA3D3E9002306465B
:10A060000F4610F061FD7CA3D3E9002310F0AAFB9A
:10A0700032463B4610F058FD79A3D3E9002310F097
:10A08000A1FB32463B4610F04FFD77A3D3E90023F6
:10A0900010F098FB32463B4610F046FD74A3D3E91E
:10A0A000002310F08FFB32463B4610F03DFD72A3BB
:10A0B000D3E9002310F086FB3246804689463B46B2
:10A0C0003046394610F030FD02460B4640464946C0
:10A0D00010F02AFD524606460F465B46DDE90401B4
:10A0E00010F070FBDDE9062310F01EFD32463B4602
:10A0F00010F068FB5246804689465B4650465946FA
:10A1000010F012FD0022684BCDE90A0110F05AFB55
:10A1100042464B4610F056FB02980F460646324622
:10A120003B465046594610F0FFFC002282468B46C3
:10A130005D4B3046394610F043FBDDE90A2310F051
:10A140003FFB02460B464046494610F039FBDDE92D
:10A15000042310F0E9FC3246804689463B46DDE99F
:10A16000060110F0E1FC02460B464046494610F05D
:10A1700029FB8046894602460B4650465946CDE9A2
:10A1800004AB10F01FFBDDE902AB3DA3D3E90023D4
:10A1900050460F4610F0C8FCDDE90423CDE902016A
:10A1A0003946504610F00CFB02460B4640464946E5
:10A1B00010F006FB34A3D3E9002310F0B5FC34A360
:10A1C000D3E90023804689465046394610F0ACFC5E
:10A1D00002460B464046494610F0F4FADDE90E23EC
:10A1E00010F0F0FA80460D98894610F037FC424690
:10A1F00006460F464B46DDE9020110F0E3FADDE9C1
:10A20000082310F0DFFA32463B4610F0DBFA324604
:10A210003B4650468B4610F0D3FADDE9082310F098
:10A22000CFFADDE9022310F0CBFA02460B46404696
:10A23000494610F0C5FA8046894637E0AFF3008002
:10A240000000000000000000000000000000F03FDF
:10A25000EF4E454A287ECA3F65DBC9934A86CD3F0B
:10A2600001411DA96074D13F4D268F515555D53FF1
:10A27000FFAB6FDBB66DDB3F033333333333E33F89
:10A28000000000E009C7EE3FFD033ADC09C7EE3FDE
:10A29000F5015B14E02F3EBE000040438E980300A2
:10A2A00079B60B000000F03F00000840013C54EA82
:10A2B000050300F079819FEDC87B8DED047BDDE91E
:10A2C00000120B461446CDE9023400230293DDE967
:10A2D000024508462B461146224610F071FA5246B6
:10A2E0005B4610F021FCDDE9002306460F464046A0
:10A2F000494610F019FC02460B463046394610F02C
:10A3000061FA2246804689462B4650465946CDE999
:10A31000008910F009FC0B46024606460F464046EF
:10A32000494610F04FFAC64B994204460D468A46FC
:10A3300040F3168101F13F4303F5E003034340F08E
:10A34000F781A7A3D3E90023DDE9000110F03AFA71
:10A350003246804689463B462046294610F030FA70
:10A3600002460B464046494610F06EFE002840F07B
:10A37000DF81A8464FEA28534FF48012A3F2FE3340
:10A3800042FA03F35344C3F30A52AE4DA2F2FF3232
:10A390001541C3F3130423EA05010020C2F1140B95
:10A3A00044F48014BAF1000F02460B4644FA0BFB4A
:10A3B00030463946B8BFCBF1000B10F001FA024627
:10A3C0000B4606460F46DDE9000110F0FBF94FEAA7
:10A3D0000B5A0D46002484A3D3E9002320462946C6
:10A3E00010F0A2FB3246804689463B46204629466D
:10A3F00010F0E6F902460B46DDE9000110F0E0F945
:10A400007BA3D3E9002310F08FFB7BA3D3E90023C8
:10A4100006460F462046294610F086FB02460B46AC
:10A420003046394610F0CEF906460F4602460B4636
:10A430004046494610F0C6F942464B4604460D4692
:10A4400010F0BEF902460B463046394610F0B8F916
:10A450002246804689462B462046294610F064FB5A
:10A4600067A3D3E9002306460F4610F05DFB66A301
:10A47000D3E9002310F0A4F932463B4610F054FB18
:10A4800063A3D3E9002310F09DF932463B4610F058
:10A490004BFB61A3D3E9002310F092F932463B460F
:10A4A00010F042FB5EA3D3E9002310F08BF9324693
:10A4B0003B4610F039FB02460B462046294610F079
:10A4C0007FF906460F4602460B462046294610F005
:10A4D0002BFB0022CDE900014FF080433046394686
:10A4E00010F06EF902460B46DDE9000110F046FC63
:10A4F000424606460F464B462046294610F014FBBE
:10A5000042464B4610F05EF902460B46304639464D
:10A5100010F056F922462B4610F052F902460B462F
:10A520000020494910F04CF98A44BAF5801FC0F266
:10A5300039815146DDE9042310F0F6FA52E442462F
:10A540004B464046494610F0EFFA4BE4BAF1000F93
:10A55000BFF6D7ACDDE90034184604F1004141E410
:10A560003A4B21F00048984540F3FF80384B0B44AC
:10A5700003430CD132463B4610F022F902460B460B
:10A58000DDE9000110F04CFD00283FF4F3AEDDE9F9
:10A59000040125A3D3E9002310F0C6FA22A3D3E9CE
:10A5A000002310F0C1FA1DE49FED217B8DED047BAB
:10A5B00085E602460B460020234910F0DFFB2EE41F
:10A5C0009FED1D7B8DED087B8DED0E7B9FED027B5E
:10A5D00000278DED067BD8E4000000000000F03F6E
:10A5E000FE822B654715973C00000000432EE63F96
:10A5F000EF39FAFE422EE63F396CA80C615C20BEB2
:10A60000D0A4BE726937663EF16BD2C541BDBB3E78
:10A610002CDE25AF6A56113F93BDBE166CC1663F56
:10A620003E5555555555C53F59F3F8C21F6EA50106
:10A63000000000000000F0BF00000000000000006B
:10A64000FFFF8F40FFFF0F000000F03FFFCB904067
:10A6500000346F3F684B9E427FF750AC674B9E4281
:10A660003FF7FDAB0022654B10F0AAF852A3D3E9E7
:10A67000002306460F4610F057FA51A3D3E90023F2
:10A68000804689463046394610F04EFA002282460E
:10A690008B465B4B3046394610F046FA02460B4675
:10A6A00049A1D1E9000110F08BF832463B4610F089
:10A6B0003BFA02460B460020524910F081F8324620
:10A6C000CDE902013B463046394610F02DFA0246EC
:10A6D0000B46DDE9020110F027FA3DA3D3E9002380
:10A6E00010F022FA02460B465046594610F068F820
:10A6F00002460B4606460F464046494610F062F8B1
:10A7000042464B46002082468B4610F059F80246DE
:10A710000B463046394610F053F880468946C5E569
:10A7200042464B460020354910F028FBFFF75ABB44
:10A73000DDE9040128A3D3E9002310F0F5F926A3ED
:10A74000D3E9002310F0F0F9FFF74CBBBEF1000F86
:10A750007FF453ABC3F1140347FA03F202FA03F395
:10A760009F4223D07446FFF720BB264B98453FF706
:10A7700001AEDDE90223924693462BE602460B46E4
:10A78000FFF7B3BB9FED167B8DED087B9FED167B2E
:10A790008DED0E7B9FED167B4FF480278DED067BB4
:10A7A000FFF7F3BB5A4601F04FFDC3E602F001028A
:10A7B000C2F10204FFF7F9BA000000604715F73F45
:10A7C00044DF5DF80BAE543E555555555555D53FB4
:10A7D000FE822B654715F73F9C7500883CE4377E69
:10A7E0000000004003B8E23F06D0CF43EBFD4C3EF3
:10A7F000000000000000F83FFEFFEF3F0000F03FC8
:10A800000000D03F0000E03F2DE9F0479C4B21F0D5
:10A8100000479F4290B08046894640F38E80994B16
:10A820009F420C46924626DC00298BA3D3E90023E5
:10A8300040F3B0810FF0C4FF934B9F4204460D4696
:10A8400000F0908086A3D3E900230FF0B9FF024601
:10A850000B46CAE90023204629460FF0B1FF80A32A
:10A86000D3E900230FF0ACFF0125CAE90201284615
:10A8700010B0BDE8F087854B9F4240F39080844B39
:10A880009F4265DC3D15A5F21645A7EB0553194619
:10A890001F46064610F0F8FB10F0E0F880468946A7
:10A8A00042464B4630463946CDE90A890FF088FFCB
:10A8B0000022784B10F038F98946804610F0E4FB0E
:10A8C00010F0CCF806460F4632463B464046494615
:10A8D000CDE90C670FF074FF00226E4B10F024F9E5
:10A8E00000220023CDE90E0110F086FB002800F0C5
:10A8F0006F81002330463946002210F07DFB00288E
:10A9000014BF01230223644A019202212A460091C6
:10A910000AA8514600F08CFB002C054614DADAF840
:10A920000420DAF80C3002F1004203F10043454202
:10A93000CAF80420CAF80C3006E000200021C2E961
:10A940000089C2E902010025284610B0BDE8F08761
:10A9500002460B460FF034FF0025CAE90201CAE99E
:10A960000001F1E740A3D3E900230FF029FF40A342
:10A97000D3E900230D4604460FF022FF02460B46A2
:10A98000CAE90023294620460FF01AFF38A3D3E96D
:10A9900000230FF015FF0125CAE90201D4E70DF0ED
:10A9A000BFFF35A3D3E900238046894610F0BCF8E9
:10A9B00000223A4B0FF006FF10F066FB054610F040
:10A9C0004DF825A3D3E90023CDE9060110F0ACF83A
:10A9D00002460B46404649460FF0F2FE20A3D3E95B
:10A9E0000023CDE90201DDE9060110F09DF81F2DDD
:10A9F00080468946CDE9048954DC294B6A1E53F808
:10AA000022309F424ED002460B46DDE902010FF094
:10AA1000D7FE80468946CAE9008942464B46DDE9B1
:10AA200002010FF0CDFEDDE904230FF0C9FE002C7A
:10AA3000CAE9020188DA09F1004401F100436D42DC
:10AA4000CAF80080CAF80440CAF80800CAF80C30F6
:10AA50007AE700BFAFF3008000004054FB21F93FCC
:10AA60003163621A61B4D03D0000601A61B4D03D18
:10AA70007370032E8A19A33B83C8C96D305FE43F0E
:10AA8000FB21E93F7BD90240FB21F93FFB21394102
:10AA9000FFFFEF7F000070416CCF03000000E03F3C
:10AAA000ECCE0300DDE90423DDE902010FF088FEAE
:10AAB0003F15C1F30A53FB1A80468946102BCAE999
:10AAC0000089AADD58A3D3E90023DDE9060110F0CF
:10AAD0002BF88046894602460B46DDE902010FF05D
:10AAE0006FFE02460B46DDE90201CDE908230FF0B7
:10AAF00067FE42464B460FF063FE4DA3D3E90023A9
:10AB000080468946DDE9060110F00EF842464B46C4
:10AB10000FF056FE0B46CDE904010246DDE90801BF
:10AB20000FF04EFEC1F30A53FF1A80468946312FBB
:10AB3000CAE900896CDD41A3D3E90023DDE9060100
:10AB40000FF0F2FFDDE9088906460F4602460B4684
:10AB5000404649460FF034FE02460B464046494601
:10AB6000CDE902230FF02CFE32463B460FF028FEC3
:10AB700034A3D3E9002306460F46DDE906010FF0B2
:10AB8000D3FF32463B460FF01BFE02460B46CDE993
:10AB900004233AE70FF016FE274B9F4204460D466A
:10ABA00018D01FA3D3E900230FF00CFE02460B467A
:10ABB000CAE90023294620460FF002FE18A3D3E974
:10ABC00000230FF0FFFD4FF0FF35CAE90201BBE69D
:10ABD000032398E614A3D3E900230FF0F3FD14A395
:10ABE000D3E900230D4604460FF0ECFD02460B4668
:10ABF000CAE90023294620460FF0E2FD0CA3D3E961
:10AC000000230FF0DFFD4FF0FF35CAE902019BE69C
:10AC10009DED087B8DED027BFFE600BFAFF300806A
:10AC20003163621A61B4D03D0000601A61B4D03D56
:10AC30007370032E8A19A33BFB21F93F0000002EFD
:10AC40008A19A33BC14920259A837B390000000063
:10AC5000594A2DE9F84F21F00048904506460F4625
:10AC60002BDC564B0029B4BF554D564D98454FF03F
:10AC7000000410DC544B984570DC4DA3D3E900234D
:10AC80000FF0A0FD0022514B10F0DEF9D8B1304694
:10AC90003946BDE8F88F4E4B98457CDD4D4B9845C5
:10ACA00044DD013398453ED03046394640A3D3E9D0
:10ACB00000230FF039FFBDE8F88F02460B460FF076
:10ACC00081FDBDE8F88F304639460DF029FE01F0D0
:10ACD0007FF806460F4632463B46304639460FF06F
:10ACE00071FD324682468B463B46304639460FF070
:10ACF0001BFF002280468946344B304639460FF010
:10AD000061FD02460B464046494610F037F80246C0
:10AD10000B46504659460FF053FD22462B460FF086
:10AD200003FFBDE8F88F2C4B9842BDD8304639461A
:10AD30000DF0F6FD0022234B0FF0F6FEFEF714FC9B
:10AD400006460F4602460B46204629460FF0ECFE0B
:10AD500032463B460FF0E8FEBDE8F88F0DF0E0FD0F
:10AD600001F036F81D4B984506460F46B3DD00222C
:10AD7000164B0FF027FD02460B46304639460FF0C2
:10AD8000FDFF32463B460FF01DFD22462B460FF0DD
:10AD9000CBFEBDE8F88F0DF0C3FDFEF7E5FB0246E4
:10ADA0000B46204629460FF0BFFEBDE8F88F00BFD6
:10ADB0003374AC3C1F7BAC7FFFFFEF7FFFFF354060
:10ADC0000000E0BF0000E03FFFFF2F3E0000F03F2B
:10ADD000412E8640CD3386407DF8B98FFFFFEF3F8F
:10ADE0002DE9F04F21F00048B8F1795F85B00646B3
:10ADF0000F4692469B466BDA10F046F9002800F0A9
:10AE0000EA8032463B46304639460FF08DFE74A349
:10AE1000D3E9002304460D460FF086FE72A3D3E962
:10AE200000230FF0CFFC22462B460FF07DFE70A3CF
:10AE3000D3E900230FF0C4FC22462B460FF074FE2A
:10AE40006DA3D3E900230FF0BDFC22462B460FF083
:10AE50006BFE6BA3D3E900230FF0B2FC22462B4616
:10AE60000FF062FE68A3D3E900230FF0ABFC22468B
:10AE70002B460FF059FECDE900010022664B20461B
:10AE800029460FF051FEDDE9002380468946204621
:10AE900029460FF049FE524604460D465B463046B1
:10AEA00039460FF041FE02460B46204629460FF078
:10AEB00087FC02460B46404649460FF081FC02469D
:10AEC0000B46002055490FF07BFC05B0BDE8F08F24
:10AED00002460B460FF028FE41A3D3E900230446A7
:10AEE0000D460FF021FE40A3D3E900230FF06AFCCA
:10AEF00022462B460FF018FE3DA3D3E900230FF0A6
:10AF00005FFC22462B460FF00FFE3BA3D3E9002344
:10AF10000FF058FC22462B460FF006FE38A3D3E96B
:10AF200000230FF04DFC22462B460FF0FDFD36A30B
:10AF3000D3E900230FF046FC2B4622460FF0F4FD28
:10AF4000374B9845CDE9000197DD364B984539DC04
:10AF5000A8F50013002200203049904699460FF0D2
:10AF60002FFCCDE9020100222B4B204629460FF091
:10AF7000DBFD42464B460FF023FCDDE90023804613
:10AF80008946204629460FF0CFFD524604460D461D
:10AF90005B46304639460FF0C7FD02460B46204659
:10AFA00029460FF00DFC02460B46404649460FF07D
:10AFB00007FC02460B46DDE902010FF001FC05B07B
:10AFC000BDE8F08F9FED127B4FF000088DED027B06
:10AFD000DFF85490C7E71149002005B0BDE8F08FB5
:10AFE000D43888BEE9FAA8BDC4B1B4BD9EEE213EF6
:10AFF000AD529C804F7E923E9015CB19A001FA3E37
:10B000007751C1166CC1563F4C5555555555A53F06
:10B01000000000000000E73F0000E03F0000F03FBC
:10B020003233D33F0000E93F0000D23F0000000070
:10B030002DE9F04FADF51B7D9F4CA49E9F4D54F81C
:10B04000264007942646D41E85FB0475E417C4EBFE
:10B05000A50424EAE4741D460A93631CA3EB83034E
:10B06000013D02EBC30306932B460B940395651B2E
:10B07000F418049008911AD42C44002600270134B7
:10B080000DF18808DDF8949208E059F825000FF0DA
:10B09000E5FC0135A542E8E8020108D0002DF4DA0C
:10B0A000013530463946A542E8E80201F6D1079B52
:10B0B000002BC0F2DF83079B03F1010B0A9B22A93F
:10B0C000DB001A4601EB03090093049B0DF5E47ABB
:10B0D00019460AEBCB0B01EB0208039B002BC0F2D5
:10B0E000F582049C4D460026002775E90223F4E80A
:10B0F00002010FF019FD02460B46304639460FF0AB
:10B1000061FB444506460F46EFD1EAE80267DA459F
:10B1100009F10809E1D107990098049C009101F117
:10B120008043013B9B0020441A1F83460EA8024423
:10B1300003440C920D93009A9AA901EBC203002AD2
:10B1400053E9284529DD0DF5E47A0AEBC2080DF133
:10B15000340900225A4B204629460FF0E5FC0FF037
:10B1600093FF0FF07BFC0022564B06460F460FF074
:10B17000DBFC02460B46204629460FF021FB0FF070
:10B1800083FF78E9022349F8040F394630460FF06F
:10B1900019FBD04504460D46DBD1DDF8189020465A
:10B1A00029464A4601F050F800224FF07F530446EA
:10B1B0000D460FF0B9FCFCF75FFD0022424B0FF08B
:10B1C000B3FC02460B46204629460FF0F9FA0D461D
:10B1D00004460FF059FF80460FF040FC0B46024634
:10B1E000294620460FF0ECFA4B46002B06460F4648
:10B1F00040F3F980009A0EA9013AC9F1180351F8F9
:10B20000225045FA03F101FA03F30EA8EB1A40F8B5
:10B210002230C9F11705884443FA05F5002D6DDD8C
:10B22000009B002B08F1010840F36F820E9C002C5C
:10B2300040F01683009B012B40F38F820EAA01235E
:10B2400052F8044F002C00F08382581C0EAAC4F15F
:10B25000807442F82340009A824219DD0EAA0EAC97
:10B2600052F820106FF07F42511A44F820100099D4
:10B27000023399420CDD1046009A0EA901EB8303BC
:10B2800001EB82011A68821A43F8042B8B42F9D130
:10B29000069B002B1ADD069B012B4FF0010440F0AA
:10B2A0003C82009B5A1E0EAB0EA953F82230C3F30A
:10B2B000160341F822303CE20CD40300ABAAAA2AC0
:10B2C0000000703E0000704100002040022D15D1AA
:10B2D00032463B46002092490FF072FA06460F466E
:10B2E000069A8F49002000F0AFFF02460B46304619
:10B2F00039460FF065FA022506460F460022002364
:10B30000304639460FF078FE002800F03782009A68
:10B31000079B501E83420FDC02F18043013B0EAAC3
:10B320000D9C02EB8303002253F80419A34242EA66
:10B330000102F9D1002A67D1079B0EAA013B52F8FE
:10B340002330002B40F018820C9A012352F8041984
:10B3500001330029FAD0009AD31802F1010A9A4564
:10B3600009933DDC009B0A990B9A0B4409990AEB5F
:10B370000208994622AB08F1804803EBC9098B18F3
:10B38000A59A08F1FF3802EB880872AA02EBCA0AF4
:10B39000A59A02EB8303009358F8040F0FF05EFBAD
:10B3A000039B002BE9E802014FF000064FF0000775
:10B3B00011DB049C4D4675E90223F4E802010FF00D
:10B3C000B3FB02460B46304639460FF0FBF95C45AD
:10B3D00006460F46EFD1009B9845EAE80267DBD1AD
:10B3E000099B0093A7E606D1009B0EAA013B52F8E9
:10B3F0002350ED1512E700224A4B0FF01BFE0028E8
:10B4000040F06E81054679E70EA9039551F820308A
:10B410000699CDF8248018390246009006916BB940
:10B4200000F18043013B0EA800EB830353F80409AD
:10B43000013A18390028F9D000920691069A384945
:10B44000002000F001FF009B002B04460D46C0F2D7
:10B45000F781DA0072A901EB020B06920EAA02EB49
:10B460008306DFF8C4904FF000080BF1080704369C
:10B4700056F8040D0FF0F2FA22462B460FF054FB5B
:10B480004B4667E902014246204629460FF04CFB35
:10B490000EAB9E4204460D46EAD14AACDDF81C9044
:10B4A00004944FF0000AB9F1000FC0F22B81DFF8CD
:10B4B0007C805D4618A1D1E9000100260027002408
:10B4C00003E0544510DCF8E80201F5E802230FF030
:10B4D0002BFB02460B46304639460FF073F9013418
:10B4E000A14506460F46ECDA049B03EBCA03ABF119
:10B4F000080BC3E9006770AB9B450AF1010AD2D182
:10B50000A49B049C032B00F28980DFE803F0C58E26
:10B510008E1100BFAFF3008000000040FB21F93F17
:10B520000000F03F0000E03F0000703E98BD0300C7
:10B53000009B002B40F38181069A04EB020ADAE9B2
:10B54000008902F1080525440DF5987B1AED027B70
:10B5500042464B4651EC170B8DED047B0FF032F950
:10B5600006460F4602460B46DDE904010FF028F9B6
:10B5700042464B460FF026F965E902015D45B046AB
:10B58000B9466AE90267E1D1009B012B40F355817E
:10B59000069BE518D5E9008903F1080B04EB0B0ABB
:10B5A00015ED027B42464B4651EC170B8DED007BAF
:10B5B0000FF008F906460F4602460B46DDE900018A
:10B5C0000FF0FEF84B4642460FF0FCF86AE9020124
:10B5D0004EAB5345B046B94665E90267E0D100205D
:10B5E000002104EB0B0575E902230FF0EBF8AA45E7
:10B5F000F9D1039B002B00F00A816268E368089F81
:10B600002568A4683D6002F1004203F1004301F1A6
:10B6100000417A60FB60BC6038617961099B03F08E
:10B6200007000DF51B7DBDE8F08F069D083525440C
:10B630000020002175E902230FF0C4F8A542F9D1DA
:10B64000039B002B00F0D280089E024601F10043CC
:10B6500086E80C000B460246D4E900010FF0B0F872
:10B66000009B002B0BDD4CAD0124F5E802230FF00D
:10B67000A9F8009B0134A342F7DA039B13B101F14F
:10B6800000431946089BC3E90201099B03F0070028
:10B690000DF51B7DBDE8F08F069D083500200021CB
:10B6A000254475E902230FF08DF8AC42F9D1039BD4
:10B6B00013B101F100431946089BC3E90001099B3E
:10B6C00003F007000DF51B7DBDE8F08F0026002775
:10B6D000EAE80267DA4509F108097FF4FEAC1AE5E9
:10B6E000009B002B08F10108C8BF02253FF79EAD63
:10B6F00032463B46002061490FF062F802250646BB
:10B700000F46FBE500260027EEE6069B002B27DD13
:10B710000024069B012B3FF4C4AD022B09D1009BF2
:10B720005A1E0EAB0EA953F82230C3F3150341F88D
:10B730002230022D7FF4E2AD32463B4600204F49D5
:10B740000FF03EF806460F46002C3FF4D7ADC7E594
:10B750000099013399427FF473AD069B002BD8DC2E
:10B76000022D7FF4CBAD32463B46002043490FF01B
:10B7700027F806460F46C1E50123ECE53946069F4A
:10B7800003957A423046CDF8248000F05DFD00221A
:10B790003B4B04460D460FF04DFC002843D00022E1
:10B7A000384B204629460FF0BFF90FF06DFC0646D6
:10B7B0000FF054F90022324B0FF0B6F902460B4657
:10B7C000204629460EF0FCFF0FF05EFC00990B4668
:10B7D00001331A4600933B46183306930B460EA9D5
:10B7E00041F82300134641F8236027E6089B0246F0
:10B7F000C3E900010B46D4E900010EF0E1FF009B14
:10B80000002B3FF730AF089BC3E902013DE7D4E9C5
:10B810000067D4E90223089DC5E90401C5E9006772
:10B82000C5E90223FAE6294620460FF02DFC009ACE
:10B830000EA941F8220001E64AAC00200021D8E61A
:10B84000A49B032B3FF6EAAE01A252F823F000BFFF
:10B850006FB8020067B8020067B8020039B802008A
:10B8600001200023F2E4002000214AACE8E6002099
:10B8700000211CE70A9BDB0000934CE40000F03F32
:10B88000000070410000703E2DE9F04F21F00046AD
:10B89000B6F1795F85B004460D469046994604DAC4
:10B8A0000FF0F2FB002800F0858022462B46204650
:10B8B00029460FF039F906460F4602460B46204648
:10B8C00029460FF031F941A3D3E9002382468B4684
:10B8D000304639460FF028F93EA3D3E900230EF095
:10B8E0006FFF32463B460FF01FF93CA3D3E900231C
:10B8F0000EF068FF32463B460FF016F939A3D3E944
:10B9000000230EF05DFF32463B460FF00DF937A3E2
:10B91000D3E900230EF056FF0E9BCDE900019BB347
:10B920000022294B404649460FF0FEF8DDE900238E
:10B93000CDE90201504659460FF0F6F802460B4693
:10B94000DDE902010EF03CFF32463B460FF0ECF819
:10B9500042464B460EF034FF19A3D3E900230646B6
:10B960000F46504659460FF0DFF802460B46304668
:10B9700039460EF027FF02460B46204629460EF0B8
:10B980001FFF05B0BDE8F08F02460B463046394632
:10B990000FF0CAF80AA3D3E900230EF011FF5246B4
:10B9A0005B460FF0C1F822462B460EF00BFF05B0A8
:10B9B000BDE8F08F2046294605B0BDE8F08F00BFF6
:10B9C000495555555555C53F0000E03F7CD5CF5AE8
:10B9D0003AD9E53DEB9C2B8AE6E55A3E7DFEB15710
:10B9E000E31DC73ED561C119A0012A3FA6F8101179
:10B9F0001111813F000000002DE9F04FBE4C21F0F5
:10BA0000004687B0A64282468B460F46CDE900230A
:10BA10001BDC0FF039FB002837D153461E43109B27
:10BA20000133334300F0B381109B012B00F0C88138
:10BA300052465B460020B1490FF0A0F904460D467E
:10BA40002046294607B0BDE8F08FAD4B9E421CDD75
:10BA50000029C0F2A98152465B4687A1D1E90001C5
:10BA60000EF0AEFEDDE9002304460D4684A1D1E9C7
:10BA700000010EF0A5FE9FED847B22462B468DED46
:10BA8000007B0EF09FFE82468B4652465B46504638
:10BA900059460FF049F802460B46804689460FF09A
:10BAA00043F8424604460D464B46504659460FF071
:10BAB0003BF877A3D3E90023CDE9020120462946CC
:10BAC0000FF032F874A3D3E900230EF07BFE224678
:10BAD0002B460FF029F872A3D3E900230EF072FE73
:10BAE00022462B460FF020F86FA3D3E900230EF077
:10BAF00069FE22462B460FF017F86DA3D3E9002309
:10BB00000EF060FE22462B460FF00EF86AA3D3E932
:10BB100000230EF057FE42464B460FF005F868A38F
:10BB2000D3E90023CDE90401204629460EF0FCFFAD
:10BB300065A3D3E900230EF045FE22462B460EF006
:10BB4000F3FF63A3D3E900230EF03CFE22462B460D
:10BB50000EF0EAFF60A3D3E900230EF033FE224685
:10BB60002B460EF0E1FF5EA3D3E900230EF02AFE80
:10BB700022462B460EF0D8FF5BA3D3E900230EF03C
:10BB800021FE02460B46DDE904010EF01BFEDDE955
:10BB900002230EF0C9FFDDE9004522462B460EF0D8
:10BBA00011FE42464B460EF0BFFF02460B462046B2
:10BBB00029460EF007FE4EA3D3E9002304460D46A6
:10BBC000DDE902010EF0B0FF22462B460EF0FAFD31
:10BBD0000B46024680468946504659460EF0F2FD15
:10BBE000474B9E4204460D4600F38E80109B012B6E
:10BBF0003BD002460B46002040490FF0BFF800241E
:10BC000006460F462046294652465B46CDE9006768
:10BC1000CDE9020100940EF0D3FDDDE900AB024650
:10BC20000B46404649460EF0CBFD52465B460EF0B1
:10BC30007BFF524604460D465B46DDE902010EF0ED
:10BC400073FF00222F4B0EF0BDFD02460B4620462F
:10BC500029460EF0B7FD32463B460EF065FF5246D0
:10BC60005B460EF0AFFD04460D462046294607B060
:10BC7000BDE8F08FAFF30080182D4454FB21E93F5D
:10BC8000075C143326A6813C000000000000000081
:10BC9000D47ABF74702AFB3EE9A7F0320FB8123F86
:10BCA00068108D1AF726303F1583E0FEC8DB573F3A
:10BCB00093846EE9E326823FFE41B31BBAA1AB3FFA
:10BCC000735360DBCB75F3BEA69237A0887E143F1A
:10BCD0000165F2F2D844433F280356C9226D6D3FF7
:10BCE00037D60684F464963F7AFE10111111C13FD5
:10BCF000635555555555D53FFFFF2F3E0000F0BF0A
:10BD00002794E53F0000F03F10980EF0A7FE224672
:10BD1000CDE900012B46204629460EF005FFDDE95E
:10BD20000023CDE90201204629460EF04BFD0246D4
:10BD30000B46DDE902010FF021F842464B460EF0BA
:10BD40003FFD02460B46504659460EF039FD02466D
:10BD50000B460EF037FD02460B46DDE900010EF002
:10BD60002FFD0446B81700F00200C0F101000D4697
:10BD70000EF074FE02460B46204629460EF0D4FE15
:10BD800004460D462046294607B0BDE8F08F5046D0
:10BD900059460CF0C5FD02460B4600200A490EF03C
:10BDA000EDFF04460D4660E7DDE9004501F1004185
:10BDB000224605F1004382468B46CDE900234AE640
:10BDC00054465D4651E700BF0000F03F0000000010
:10BDD0002DE9F04FD24A21F00043934285B08246CC
:10BDE0008B460C462DD9CF4A93421AD8002C80F2AC
:10BDF0001681B5A3D3E90023504659460EF0E2FC64
:10BE0000002200230FF002F9C0B9B1A3D3E9002347
:10BE1000504659460EF088FE02460B460020C249A5
:10BE200008E1C24A934240F2D0800346C1F31302B4
:10BE3000134340F0F481002980F2C4800020BC4903
:10BE4000C0E0BC4A934200F22981BB4A934240F2CF
:10BE5000DE80002301930022B84B504659460EF075
:10BE600063FE06460F4602460B46504659460EF004
:10BE70005BFE99A3D3E9002304460D460EF054FE61
:10BE800097A3D3E900230EF09DFC22462B460EF02B
:10BE90004BFE95A3D3E900230EF092FC22462B46DD
:10BEA0000EF042FE92A3D3E900230EF08BFC224653
:10BEB0002B460EF039FE90A3D3E900230EF080FC50
:10BEC00022462B460EF030FE00229D4B0EF07AFCEF
:10BED0008046894602460B46304639460EF024FE1F
:10BEE00002460B46002097490EF06AFC06460246C1
:10BEF0000B460F46404649460EF062FC32468046ED
:10BF000089463B46504659460EF00EFE02460B4609
:10BF100000208D490EF054FC02460B46404649462F
:10BF20000EF02CFF22462B460EF0FEFD019E02462F
:10BF30000B46002E38D0DDE9026732463B460EF054
:10BF40003FFC52465B460EF0EFFD32463B460EF09C
:10BF500037FC2B4622460EF033FC019B013306468C
:10BF60000F4600F00F81019B012B00F0F180019B37
:10BF70000133392B39D8019B132B40F31281019CDB
:10BF8000C4F57F75033500222B050EF01BFC02461D
:10BF90000B46504659460EF013FC0022684B0EF03B
:10BFA00011FC01EB04510DE0504659460EF0BCFD6A
:10BFB00022462B460EF004FC02460B4650465946DC
:10BFC0000EF0FEFB05B0BDE8F08F4DA3D3E90023D2
:10BFD0000FF03AF800283FF409AF4BA3D3E9002350
:10BFE000104619460EF0A0FDECE752465B460EF0F7
:10BFF000E7FB02460B46002051490EF0E1FB019A97
:10C000004F4B01EB025100220EF0DAFBDAE73EA3C0
:10C01000D3E900230EF0D6FB02460B46CAE72CA359
:10C02000D3E90023504659460EF07EFD0B464349A6
:10C03000024600200EF0C6FB0FF026F801900EF02D
:10C040000DFD33A3D3E9002306460F460EF06CFD29
:10C0500002460B46504659460EF0B2FB2EA3D3E9DA
:10C06000002380468946304639460EF05DFD06467F
:10C070000F4632463B46404649460EF0A1FB02467B
:10C080000B4682468B46404649460EF099FB3246A7
:10C090003B460EF095FBCDE90201DCE62B4A9342CC
:10C0A00000F2958000291AA3D3E90023C0F2AC80E6
:10C0B0000EF086FB012380468946019316A7D7E937
:10C0C0000067D6E7AFF3008059F3F8C21F6EA501F1
:10C0D000FE822B654715F73F2DC3096EB7FD8ABE5B
:10C0E0003952E686CACFD03EB7DBAA9E19CE143F9E
:10C0F0008555FE19A0015A3FF41011111111A13FED
:10C10000EF39FAFE422E86409C7500883CE4377E6B
:10C110000000E0FE422EE63F763C7935EF39EA3DFD
:10C1200079684340412E86400000E0BFFFFFEF7F6B
:10C130000000F0BF422ED63FFFFF8F3C0000E03FE3
:10C140000000F03F0000084000001840B1A2F03F9E
:10C150000022394B504659460EF058FF002844D073
:10C16000504659460022354B0EF02CFB02460B463A
:10C17000304639460EF024FB00224FF040430EF0CB
:10C18000D3FC1FE702460B46504659460EF018FBFB
:10C1900000222A4B0EF0C8FC0022284B0EF010FBA8
:10C1A00010E7019C4FF400132341C3F17F5752461F
:10C1B0005B460EF005FB002607F5401702460B46CE
:10C1C000304639460EF0FCFA01EB0451FAE616A3AC
:10C1D000D3E900230EF0A8FC002C02460B464FF0DA
:10C1E0000000FFF61CAE154924E732463B46504698
:10C1F00059460EF0E5FA02460B460EF0E3FA00222D
:10C200000F4B0EF0DFFADDE60EF0DCFA4FF0FF33F5
:10C2100080468946019306A7D7E9006729E70246C9
:10C220000B460EF0CFFACDE6FE822B654715F73FA1
:10C23000763C7935EF39EABD0000D0BF0000E03F21
:10C240000000F03F00000000F8B5C1F30A560446B4
:10C250000D460B4617460EBB21F0004303438646AE
:10C2600025D00022344B0EF05FFC344A974204463E
:10C270000D460B462ADBC1F30A56363E3E4440F2D9
:10C28000FE72964228DC002E12DD23F0FF4323F4D9
:10C29000E00343EA065520462946F8BD40F2FF7206
:10C2A0009642EBD102460B460EF08CFAF8BDF8BD73
:10C2B00016F1350F1DDA4CF250339F4222462B46C1
:10C2C00025DC19A1D1E900010EF0ECF916A3D3E9A0
:10C2D00000230EF029FCF8BD22462B4614A1D1E91B
:10C2E00000010EF0DFF912A3D3E900230EF01CFCCD
:10C2F000F8BD23F0FF4323F4E003363643EA065546
:10C300002046294600220E4B0EF00EFCF8BD08A177
:10C31000D1E900010EF0C6F905A3D3E900230EF020
:10C3200003FCF8BDAFF3008059F3F8C21F6EA501FE
:10C330009C7500883CE4377E00005043B03CFFFF12
:10C340000000903C10B5054C237833B9044B13B171
:10C350000448AFF300800123237010BD1085002036
:10C360000000000064D503000C4B43B10C480D499C
:10C3700010B5AFF300800C48036823B910BD0A481C
:10C38000036833B97047094B002BF7D0BDE8104064
:10C390001847064B002BF5D0184700BF00000000DF
:10C3A00064D50300148500201C82002000000000DA
:10C3B000154B002B08BF134B9D46A3F5803A002177
:10C3C0008B460F461348144A121A0FF04EF90F4BC2
:10C3D000002B00D098470E4B002B00D09847002030
:10C3E000002104000D000D48002802D00C48AFF3D6
:10C3F00000800EF08DF92000290004F03FFF0EF0C0
:10C4000073F900BF000008000000042000000000D5
:10C410000000000000840020848C00200000000048
:10C420000000000070B504460E4600F0D1FA88B155
:10C430000368DB6A05469847082C0CD0A4F1090371
:10C44000012B14D93246214610230D20BDE870403F
:10C4500004F012B970BD2B6828465B6A9847022821
:10C46000F0DC2B6828461B6A04219847EAE72B6812
:10C4700028465B6A98470528E4DC2B6828461B6A37
:10C4800008219847DEE700BF30B52DED028B83B061
:10C49000054600F09DFA044640B10368DB6A984700
:10C4A000032D50D8DFE805F0373F47080190019889
:10C4B00003B0BDEC028B30BD204606F071FE07EEE6
:10C4C000900A2046F8EEE78A06F07AFE07EE900A18
:10C4D0002046B8EEE78A06F083FE68EE087A07EE9B
:10C4E000100AE8EEA87AB8EEC77AE7EE077AF5EE1A
:10C4F000407AF1EE10FAB1EEE78A03D517EE900A12
:10C500000CF05AFFFDEEC87ACDED017A019803B028
:10C51000BDEC028B30BD204603B0BDEC028BBDE804
:10C52000304006F03DBE204603B0BDEC028BBDE8B6
:10C53000304006F045BE204603B0BDEC028BBDE89E
:10C54000304006F04DBE00230193B0E710B500F077
:10C550003FFA20B10368BDE810405B6B184710BD7F
:10C5600038B5054600F034FA58B10368DB6A044672
:10C57000984745B1012D04D12046BDE83840FBF76E
:10C5800093B8002038BD2046BDE83840FBF76CB8B2
:10C5900010B5044600F01CFA28B1036821461B6A56
:10C5A000BDE81040184710BD0048704716FCFFFF5B
:10C5B000704700BF10B5034B0360044606F0CEFB86
:10C5C000204610BDF4CA030010B5054B03600446B5
:10C5D00006F0C4FB20460EF0E9FF204610BD00BF68
:10C5E000F4CA03002DE9F043AC4F3C6885B01CB1A0
:10C5F000204605B0BDE8F0834FF0FF31012001F087
:10C6000025FDC0B204F010FB002800F06D810C2065
:10C610000EF0CEFF03210546512001F017FDDFF893
:10C620009CE29F4B064606F00F08C6F3031916F46A
:10C63000807618BF73469B4841464A4605F046FD42
:10C64000321C18BF01224B464146284609F040FAE9
:10C650009548AC6005F03AFD4FF0FF31032001F042
:10C66000F5FCC0B204F0E0FA4FF0FF3104460220BE
:10C6700001F0ECFCC0B204F0D7FA002C00F0F88016
:10C68000002800F0F5800146204604F0D7F8064661
:10C69000002800F025814FF0FF31462001F0D6FC44
:10C6A000A0F130038046382B00F2B480DFE803F0BD
:10C6B00097B297B2B2B2B2B27CB263B246B2B2B281
:10C6C000B2B2B2B2B2B2B2B2B2B2B2B2B2B2B2B24A
:10C6D000B2B2B2B2B2B2B2B2B2B2B2B2B2B2B2B23A
:10C6E000B2B2B2B2B2B2B2B21D004FF0FF3101200D
:10C6F00001F0ACFCC0B204F097FA804654200EF072
:10C7000057FF4FF0050E682304468DE80840424667
:10C7100031462B4608F0FAFB2046A86003689B6A66
:10C720009847A8680368DB6A9847604805F0CEFC24
:10C730002C4620463D6005B0BDE8F0834FF0FF3148
:10C74000012001F083FCC0B204F06EFA04462C20F4
:10C750000EF02EFF224631463C23804607F07EFF36
:10C7600040200EF025FF4146044605232A4608F0E6
:10C770006FF82046D1E74FF0FF31012001F066FC51
:10C78000C0B204F051FA804648200EF011FF4FF07D
:10C79000050E3A2304468DE80840424631462B46B2
:10C7A00008F00CFB2046B8E74FF0FF31012001F004
:10C7B0004DFCC0B204F038FA804648200EF0F8FE76
:10C7C0004FF0050E382304468DE8084042462B46BC
:10C7D000314608F0F3FA364B236020469DE74FF0D0
:10C7E000FF31012001F032FCC0B204F01DFA814695
:10C7F00050200EF0DDFE1FFA88F34FF0050E0446C0
:10C8000000934A463146CDF804E02B4608F05CF927
:10C81000204682E732680124002301940094D2F874
:10C820002080AB600F220DF10F0332213046C0474C
:10C83000002845D14FF0320841461E4805F046FC1D
:10C840004FF0FF31012001F001FCC0B204F0ECF91F
:10C85000814650200EF0ACFE0523044601934A4663
:10C86000CDF8008031462B4608F02EF9204654E7DB
:10C87000114805F02BFC4FF0FF31192001F0E6FBC9
:10C88000C0B204F0D1F94FF0FF310446182001F096
:10C89000DDFBC0B204F0C8F9F5E600BF2C8500202E
:10C8A00028BE030030BE030050BE0300E8BE0300F4
:10C8B000E8BD03000CBF030060BE030020BE030000
:10C8C000336801940094D3F820800F220DF10F03F8
:10C8D00030213046C04748B94FF030084146ACE7F8
:10C8E000364805F0F3FB23E73C6881E633680194A2
:10C8F0000094D3F820800D220DF10F03382130462B
:10C90000C04738B938212E4805F0E0FB20464FF0EB
:10C91000FF314CE7336801940094D3F820800D2256
:10C920000DF10F033C213046C04738B93C21244863
:10C9300005F0CCFB20464FF0FF3102E7336801944D
:10C940000094D3F820800D220DF10F033A213046D8
:10C95000C04738B93A211A4805F0B8FB20464FF0D5
:10C96000FF310BE7326801940094D2F820800DF17A
:10C970000F03752268213046C04738B96821104836
:10C9800005F0A4FB20464FF0FF31B1E60D4805F05D
:10C990009DFBA86800287FF4C1AE4FF0FF31032053
:10C9A00001F054FBC0B204F03FF918B1064805F09D
:10C9B0008DFBBDE6054805F089FBB9E674BE0300B2
:10C9C0000CBF0300F8BE03008CBE0300C8BE03000A
:10C9D00008B5FFF707FE00B1806808BD08B501F093
:10C9E0005DFCFBF705FCBDE8084001F0BBB900BFEA
:10C9F00008B501F053FCFBF76BFCBDE8084001F003
:10CA0000B1B900BF08B501F049FC0BF0FFFFBDE86C
:10CA1000084001F0A7B900BF08B501F03FFC0CF0D9
:10CA200007FCBDE8084001F09DB900BF08B501F062
:10CA300035FCFBF7EDFBBDE8084001F093B900BF02
:10CA400008B501F02BFC0CF01FFABDE8084001F01E
:10CA500089B900BF08B501F021FCFAF745FEBDE831
:10CA6000084001F07FB900BF08B501F017FC0CF0D9
:10CA70005FF9BDE8084001F075B900BF70B5049ECC
:10CA800096420C4628DB15466BB1002A00EB0201EA
:10CA900007DD2046A21811F8013D00F8013B904245
:10CAA000F9D1002070BD042A0FD0022A02D110F063
:10CAB000010306D001462A4620460EF0B1FD0020B3
:10CAC00070BD02880A80184670BD10F00303F1D1D2
:10CAD00002680A60184670BD084600210EF0C5FDC8
